{
  "_format": "hh-sol-artifact-1",
  "contractName": "Upgrade",
  "sourceName": "contracts/external/Upgrade.sol",
  "abi": [
    {
      "anonymous": false,
      "inputs": [
        {
          "indexed": true,
          "internalType": "address",
          "name": "previousOwner",
          "type": "address"
        },
        {
          "indexed": true,
          "internalType": "address",
          "name": "newOwner",
          "type": "address"
        }
      ],
      "name": "OwnershipTransferred",
      "type": "event"
    },
    {
      "inputs": [
        {
          "internalType": "uint256",
          "name": "",
          "type": "uint256"
        }
      ],
      "name": "cuts",
      "outputs": [
        {
          "internalType": "address",
          "name": "target",
          "type": "address"
        },
        {
          "internalType": "enum IDiamondWritable.FacetCutAction",
          "name": "action",
          "type": "uint8"
        }
      ],
      "stateMutability": "view",
      "type": "function"
    },
    {
      "inputs": [],
      "name": "data",
      "outputs": [
        {
          "internalType": "bytes",
          "name": "",
          "type": "bytes"
        }
      ],
      "stateMutability": "view",
      "type": "function"
    },
    {
      "inputs": [],
      "name": "get",
      "outputs": [
        {
          "components": [
            {
              "internalType": "address",
              "name": "target",
              "type": "address"
            },
            {
              "internalType": "enum IDiamondWritable.FacetCutAction",
              "name": "action",
              "type": "uint8"
            },
            {
              "internalType": "bytes4[]",
              "name": "selectors",
              "type": "bytes4[]"
            }
          ],
          "internalType": "struct IDiamondWritable.FacetCut[]",
          "name": "",
          "type": "tuple[]"
        },
        {
          "internalType": "address",
          "name": "",
          "type": "address"
        },
        {
          "internalType": "bytes",
          "name": "",
          "type": "bytes"
        }
      ],
      "stateMutability": "view",
      "type": "function"
    },
    {
      "inputs": [],
      "name": "owner",
      "outputs": [
        {
          "internalType": "address",
          "name": "",
          "type": "address"
        }
      ],
      "stateMutability": "view",
      "type": "function"
    },
    {
      "inputs": [
        {
          "components": [
            {
              "internalType": "address",
              "name": "target",
              "type": "address"
            },
            {
              "internalType": "enum IDiamondWritable.FacetCutAction",
              "name": "action",
              "type": "uint8"
            },
            {
              "internalType": "bytes4[]",
              "name": "selectors",
              "type": "bytes4[]"
            }
          ],
          "internalType": "struct IDiamondWritable.FacetCut[]",
          "name": "_cuts",
          "type": "tuple[]"
        },
        {
          "internalType": "address",
          "name": "_target",
          "type": "address"
        },
        {
          "internalType": "bytes",
          "name": "_data",
          "type": "bytes"
        }
      ],
      "name": "set",
      "outputs": [],
      "stateMutability": "nonpayable",
      "type": "function"
    },
    {
      "inputs": [],
      "name": "target",
      "outputs": [
        {
          "internalType": "address",
          "name": "",
          "type": "address"
        }
      ],
      "stateMutability": "view",
      "type": "function"
    },
    {
      "inputs": [
        {
          "internalType": "address",
          "name": "account",
          "type": "address"
        }
      ],
      "name": "transferOwnership",
      "outputs": [],
      "stateMutability": "nonpayable",
      "type": "function"
    }
  ],
  "bytecode": "0x608060405234801561001057600080fd5b50611669806100206000396000f3fe608060405234801561001057600080fd5b506004361061007d5760003560e01c80638da5cb5b1161005b5780638da5cb5b146100dc578063b27fb311146100fa578063d4b839921461012b578063f2fde38b146101495761007d565b806314c43a78146100825780636d4ce63c1461009e57806373d4a13a146100be575b600080fd5b61009c60048036038101906100979190610f80565b610165565b005b6100a66103ca565b6040516100b5939291906112f8565b60405180910390f35b6100c6610698565b6040516100d3919061133d565b60405180910390f35b6100e4610726565b6040516100f1919061135f565b60405180910390f35b610114600480360381019061010f91906113b0565b610735565b6040516101229291906113ec565b60405180910390f35b610133610796565b604051610140919061135f565b60405180910390f35b610163600480360381019061015e9190611415565b6107bc565b005b60008054906101000a900460ff16156101b3576040517f08c379a00000000000000000000000000000000000000000000000000000000081526004016101aa9061149f565b60405180910390fd5b6101bb61097f565b60005b8451811015610307578481815181106101da576101d96114bf565b5b6020026020010151915060016040518060600160405280846000015173ffffffffffffffffffffffffffffffffffffffff1681526020018460200151600281111561022857610227611046565b5b81526020018460400151815250908060018154018082558091505060019003906000526020600020906002020160009091909190915060008201518160000160006101000a81548173ffffffffffffffffffffffffffffffffffffffff021916908373ffffffffffffffffffffffffffffffffffffffff16021790555060208201518160000160146101000a81548160ff021916908360028111156102d0576102cf611046565b5b021790555060408201518160010190805190602001906102f19291906109c8565b50505080806102ff9061151d565b9150506101be565b5082600260006101000a81548173ffffffffffffffffffffffffffffffffffffffff021916908373ffffffffffffffffffffffffffffffffffffffff160217905550816003908051906020019061035f929190610a75565b5033610369610861565b60000160006101000a81548173ffffffffffffffffffffffffffffffffffffffff021916908373ffffffffffffffffffffffffffffffffffffffff16021790555060016000806101000a81548160ff02191690831515021790555050505050565b606060006060600060018054905067ffffffffffffffff8111156103f1576103f0610b42565b5b60405190808252806020026020018201604052801561042a57816020015b61041761097f565b81526020019060019003908161040f5790505b50905060005b81518110156105d957604051806060016040528060018381548110610458576104576114bf565b5b906000526020600020906002020160000160009054906101000a900473ffffffffffffffffffffffffffffffffffffffff1673ffffffffffffffffffffffffffffffffffffffff168152602001600183815481106104b9576104b86114bf565b5b906000526020600020906002020160000160149054906101000a900460ff1660028111156104ea576104e9611046565b5b815260200160018381548110610503576105026114bf565b5b90600052602060002090600202016001018054806020026020016040519081016040528092919081815260200182805480156105a057602002820191906000526020600020906000905b82829054906101000a900460e01b7bffffffffffffffffffffffffffffffffffffffffffffffffffffffff19168152602001906004019060208260030104928301926001038202915080841161054d5790505b50505050508152508282815181106105bb576105ba6114bf565b5b602002602001018190525080806105d19061151d565b915050610430565b5080600260009054906101000a900473ffffffffffffffffffffffffffffffffffffffff16600380805461060c90611595565b80601f016020809104026020016040519081016040528092919081815260200182805461063890611595565b80156106855780601f1061065a57610100808354040283529160200191610685565b820191906000526020600020905b81548152906001019060200180831161066857829003601f168201915b5050505050905093509350935050909192565b600380546106a590611595565b80601f01602080910402602001604051908101604052809291908181526020018280546106d190611595565b801561071e5780601f106106f35761010080835404028352916020019161071e565b820191906000526020600020905b81548152906001019060200180831161070157829003601f168201915b505050505081565b600061073061088e565b905090565b6001818154811061074557600080fd5b90600052602060002090600202016000915090508060000160009054906101000a900473ffffffffffffffffffffffffffffffffffffffff16908060000160149054906101000a900460ff16905082565b600260009054906101000a900473ffffffffffffffffffffffffffffffffffffffff1681565b6107c4610861565b60000160009054906101000a900473ffffffffffffffffffffffffffffffffffffffff1673ffffffffffffffffffffffffffffffffffffffff163373ffffffffffffffffffffffffffffffffffffffff1614610855576040517f08c379a000000000000000000000000000000000000000000000000000000000815260040161084c90611613565b60405180910390fd5b61085e816108c1565b50565b6000807f8a22373512790c48b83a1fe2efdd2888d4a917bcdc24d0adf63e60f67168046090508091505090565b6000610898610861565b60000160009054906101000a900473ffffffffffffffffffffffffffffffffffffffff16905090565b6108db816108cd610861565b61093890919063ffffffff16565b8073ffffffffffffffffffffffffffffffffffffffff163373ffffffffffffffffffffffffffffffffffffffff167f8be0079c531659141344cd1fd0a4f28419497f9722a3daafe3b4186f6b6457e060405160405180910390a350565b808260000160006101000a81548173ffffffffffffffffffffffffffffffffffffffff021916908373ffffffffffffffffffffffffffffffffffffffff1602179055505050565b6040518060600160405280600073ffffffffffffffffffffffffffffffffffffffff168152602001600060028111156109bb576109ba611046565b5b8152602001606081525090565b82805482825590600052602060002090600701600890048101928215610a645791602002820160005b83821115610a3257835183826101000a81548163ffffffff021916908360e01c021790555092602001926004016020816003010492830192600103026109f1565b8015610a625782816101000a81549063ffffffff0219169055600401602081600301049283019260010302610a32565b505b509050610a719190610afb565b5090565b828054610a8190611595565b90600052602060002090601f016020900481019282610aa35760008555610aea565b82601f10610abc57805160ff1916838001178555610aea565b82800160010185558215610aea579182015b82811115610ae9578251825591602001919060010190610ace565b5b509050610af79190610afb565b5090565b5b80821115610b14576000816000905550600101610afc565b5090565b6000604051905090565b600080fd5b600080fd5b600080fd5b6000601f19601f8301169050919050565b7f4e487b7100000000000000000000000000000000000000000000000000000000600052604160045260246000fd5b610b7a82610b31565b810181811067ffffffffffffffff82111715610b9957610b98610b42565b5b80604052505050565b6000610bac610b18565b9050610bb88282610b71565b919050565b600067ffffffffffffffff821115610bd857610bd7610b42565b5b602082029050602081019050919050565b600080fd5b600080fd5b600080fd5b600073ffffffffffffffffffffffffffffffffffffffff82169050919050565b6000610c2382610bf8565b9050919050565b610c3381610c18565b8114610c3e57600080fd5b50565b600081359050610c5081610c2a565b92915050565b60038110610c6357600080fd5b50565b600081359050610c7581610c56565b92915050565b600067ffffffffffffffff821115610c9657610c95610b42565b5b602082029050602081019050919050565b60007fffffffff0000000000000000000000000000000000000000000000000000000082169050919050565b610cdc81610ca7565b8114610ce757600080fd5b50565b600081359050610cf981610cd3565b92915050565b6000610d12610d0d84610c7b565b610ba2565b90508083825260208201905060208402830185811115610d3557610d34610be9565b5b835b81811015610d5e5780610d4a8882610cea565b845260208401935050602081019050610d37565b5050509392505050565b600082601f830112610d7d57610d7c610b2c565b5b8135610d8d848260208601610cff565b91505092915050565b600060608284031215610dac57610dab610bee565b5b610db66060610ba2565b90506000610dc684828501610c41565b6000830152506020610dda84828501610c66565b602083015250604082013567ffffffffffffffff811115610dfe57610dfd610bf3565b5b610e0a84828501610d68565b60408301525092915050565b6000610e29610e2484610bbd565b610ba2565b90508083825260208201905060208402830185811115610e4c57610e4b610be9565b5b835b81811015610e9357803567ffffffffffffffff811115610e7157610e70610b2c565b5b808601610e7e8982610d96565b85526020850194505050602081019050610e4e565b5050509392505050565b600082601f830112610eb257610eb1610b2c565b5b8135610ec2848260208601610e16565b91505092915050565b600080fd5b600067ffffffffffffffff821115610eeb57610eea610b42565b5b610ef482610b31565b9050602081019050919050565b82818337600083830152505050565b6000610f23610f1e84610ed0565b610ba2565b905082815260208101848484011115610f3f57610f3e610ecb565b5b610f4a848285610f01565b509392505050565b600082601f830112610f6757610f66610b2c565b5b8135610f77848260208601610f10565b91505092915050565b600080600060608486031215610f9957610f98610b22565b5b600084013567ffffffffffffffff811115610fb757610fb6610b27565b5b610fc386828701610e9d565b9350506020610fd486828701610c41565b925050604084013567ffffffffffffffff811115610ff557610ff4610b27565b5b61100186828701610f52565b9150509250925092565b600081519050919050565b600082825260208201905092915050565b6000819050602082019050919050565b61104081610c18565b82525050565b7f4e487b7100000000000000000000000000000000000000000000000000000000600052602160045260246000fd5b6003811061108657611085611046565b5b50565b600081905061109782611075565b919050565b60006110a782611089565b9050919050565b6110b78161109c565b82525050565b600081519050919050565b600082825260208201905092915050565b6000819050602082019050919050565b6110f281610ca7565b82525050565b600061110483836110e9565b60208301905092915050565b6000602082019050919050565b6000611128826110bd565b61113281856110c8565b935061113d836110d9565b8060005b8381101561116e57815161115588826110f8565b975061116083611110565b925050600181019050611141565b5085935050505092915050565b60006060830160008301516111936000860182611037565b5060208301516111a660208601826110ae565b50604083015184820360408601526111be828261111d565b9150508091505092915050565b60006111d7838361117b565b905092915050565b6000602082019050919050565b60006111f78261100b565b6112018185611016565b93508360208202850161121385611027565b8060005b8581101561124f578484038952815161123085826111cb565b945061123b836111df565b925060208a01995050600181019050611217565b50829750879550505050505092915050565b61126a81610c18565b82525050565b600081519050919050565b600082825260208201905092915050565b60005b838110156112aa57808201518184015260208101905061128f565b838111156112b9576000848401525b50505050565b60006112ca82611270565b6112d4818561127b565b93506112e481856020860161128c565b6112ed81610b31565b840191505092915050565b6000606082019050818103600083015261131281866111ec565b90506113216020830185611261565b818103604083015261133381846112bf565b9050949350505050565b6000602082019050818103600083015261135781846112bf565b905092915050565b60006020820190506113746000830184611261565b92915050565b6000819050919050565b61138d8161137a565b811461139857600080fd5b50565b6000813590506113aa81611384565b92915050565b6000602082840312156113c6576113c5610b22565b5b60006113d48482850161139b565b91505092915050565b6113e68161109c565b82525050565b60006040820190506114016000830185611261565b61140e60208301846113dd565b9392505050565b60006020828403121561142b5761142a610b22565b5b600061143984828501610c41565b91505092915050565b600082825260208201905092915050565b7f557067726164653a20616c726561647920726567697374657265642e00000000600082015250565b6000611489601c83611442565b915061149482611453565b602082019050919050565b600060208201905081810360008301526114b88161147c565b9050919050565b7f4e487b7100000000000000000000000000000000000000000000000000000000600052603260045260246000fd5b7f4e487b7100000000000000000000000000000000000000000000000000000000600052601160045260246000fd5b60006115288261137a565b91507fffffffffffffffffffffffffffffffffffffffffffffffffffffffffffffffff82141561155b5761155a6114ee565b5b600182019050919050565b7f4e487b7100000000000000000000000000000000000000000000000000000000600052602260045260246000fd5b600060028204905060018216806115ad57607f821691505b602082108114156115c1576115c0611566565b5b50919050565b7f4f776e61626c653a2073656e646572206d757374206265206f776e6572000000600082015250565b60006115fd601d83611442565b9150611608826115c7565b602082019050919050565b6000602082019050818103600083015261162c816115f0565b905091905056fea2646970667358221220a4e0bdca32b54208173983fdce0ab332e10c94f13f2cc62c7cc81af4aa885b0664736f6c634300080c0033",
  "linkReferences": {},
  "deployedLinkReferences": {}
}