{
  "_format": "hh-sol-artifact-1",
  "contractName": "GovernanceInit",
  "sourceName": "contracts/_library/ontap/governance/init/GovernanceInit.sol",
  "abi": [
    {
      "inputs": [],
      "name": "init",
      "outputs": [],
      "stateMutability": "nonpayable",
      "type": "function"
    }
  ],
  "bytecode": "0x608060405234801561001057600080fd5b50610211806100206000396000f3fe608060405234801561001057600080fd5b506004361061002b5760003560e01c8063e1c7392a14610030575b600080fd5b61003861003a565b005b6100543061004661013a565b61016790919063ffffffff16565b600061005e6101ae565b905060148160000160016101000a81548160ff021916908360ff16021790555060648160000160006101000a81548160ff021916908360ff16021790555060148160000160026101000a81548160ff021916908360ff16021790555060648160000160036101000a81548160ff021916908360ff16021790555060148160000160046101000a81548160ff021916908360ff16021790555060008160000160076101000a81548161ffff021916908361ffff1602179055506101508160000160056101000a81548161ffff021916908361ffff16021790555050565b6000807f8a22373512790c48b83a1fe2efdd2888d4a917bcdc24d0adf63e60f67168046090508091505090565b808260000160006101000a81548173ffffffffffffffffffffffffffffffffffffffff021916908373ffffffffffffffffffffffffffffffffffffffff1602179055505050565b6000807ff5ec48837faef7380c2410b7ec57ef09fd7d96fda490ccadb727cfb7d8cafdf79050809150509056fea2646970667358221220e88be088294872c9c006dd95640f4060846fdd052cc317baac3714211b8579e164736f6c634300080c0033",
  "linkReferences": {},
  "deployedLinkReferences": {}
}