{
  "_format": "hh-sol-artifact-1",
  "contractName": "Writable",
  "sourceName": "contracts/logic/Writable.sol",
  "abi": [
    {
      "inputs": [
        {
          "internalType": "address",
          "name": "ontap",
          "type": "address"
        }
      ],
      "stateMutability": "nonpayable",
      "type": "constructor"
    },
    {
      "anonymous": false,
      "inputs": [
        {
          "components": [
            {
              "internalType": "address",
              "name": "target",
              "type": "address"
            },
            {
              "internalType": "enum IDiamondWritable.FacetCutAction",
              "name": "action",
              "type": "uint8"
            },
            {
              "internalType": "bytes4[]",
              "name": "selectors",
              "type": "bytes4[]"
            }
          ],
          "indexed": false,
          "internalType": "struct IDiamondWritable.FacetCut[]",
          "name": "facetCuts",
          "type": "tuple[]"
        },
        {
          "indexed": false,
          "internalType": "address",
          "name": "target",
          "type": "address"
        },
        {
          "indexed": false,
          "internalType": "bytes",
          "name": "data",
          "type": "bytes"
        }
      ],
      "name": "DiamondCut",
      "type": "event"
    },
    {
      "anonymous": false,
      "inputs": [
        {
          "indexed": true,
          "internalType": "address",
          "name": "previousOwner",
          "type": "address"
        },
        {
          "indexed": true,
          "internalType": "address",
          "name": "newOwner",
          "type": "address"
        }
      ],
      "name": "OwnershipTransferred",
      "type": "event"
    },
    {
      "anonymous": false,
      "inputs": [
        {
          "indexed": false,
          "internalType": "address",
          "name": "called",
          "type": "address"
        },
        {
          "indexed": false,
          "internalType": "address",
          "name": "by",
          "type": "address"
        }
      ],
      "name": "Upgraded",
      "type": "event"
    },
    {
      "inputs": [
        {
          "internalType": "string",
          "name": "name",
          "type": "string"
        },
        {
          "components": [
            {
              "internalType": "address",
              "name": "target",
              "type": "address"
            },
            {
              "internalType": "enum IDiamondWritable.FacetCutAction",
              "name": "action",
              "type": "uint8"
            },
            {
              "internalType": "bytes4[]",
              "name": "selectors",
              "type": "bytes4[]"
            }
          ],
          "internalType": "struct IDiamondWritable.FacetCut[]",
          "name": "facetCuts",
          "type": "tuple[]"
        },
        {
          "internalType": "address",
          "name": "target",
          "type": "address"
        },
        {
          "internalType": "bytes",
          "name": "data",
          "type": "bytes"
        }
      ],
      "name": "cutAndCommit",
      "outputs": [],
      "stateMutability": "nonpayable",
      "type": "function"
    },
    {
      "inputs": [],
      "name": "diamond",
      "outputs": [
        {
          "internalType": "address",
          "name": "",
          "type": "address"
        }
      ],
      "stateMutability": "view",
      "type": "function"
    },
    {
      "inputs": [
        {
          "components": [
            {
              "internalType": "address",
              "name": "target",
              "type": "address"
            },
            {
              "internalType": "enum IDiamondWritable.FacetCutAction",
              "name": "action",
              "type": "uint8"
            },
            {
              "internalType": "bytes4[]",
              "name": "selectors",
              "type": "bytes4[]"
            }
          ],
          "internalType": "struct IDiamondWritable.FacetCut[]",
          "name": "facetCuts",
          "type": "tuple[]"
        },
        {
          "internalType": "address",
          "name": "target",
          "type": "address"
        },
        {
          "internalType": "bytes",
          "name": "data",
          "type": "bytes"
        }
      ],
      "name": "diamondCut",
      "outputs": [],
      "stateMutability": "nonpayable",
      "type": "function"
    },
    {
      "inputs": [
        {
          "internalType": "address",
          "name": "account",
          "type": "address"
        },
        {
          "internalType": "string",
          "name": "name",
          "type": "string"
        }
      ],
      "name": "update",
      "outputs": [],
      "stateMutability": "nonpayable",
      "type": "function"
    }
  ],
  "bytecode": "0x60a06040523480156200001157600080fd5b5060405162002e6638038062002e668339818101604052810190620000379190620000dc565b8073ffffffffffffffffffffffffffffffffffffffff1660808173ffffffffffffffffffffffffffffffffffffffff1681525050506200010e565b600080fd5b600073ffffffffffffffffffffffffffffffffffffffff82169050919050565b6000620000a48262000077565b9050919050565b620000b68162000097565b8114620000c257600080fd5b50565b600081519050620000d681620000ab565b92915050565b600060208284031215620000f557620000f462000072565b5b60006200010584828501620000c5565b91505092915050565b608051612d2e62000138600039600081816101b90152818161041401526104c00152612d2e6000f3fe608060405234801561001057600080fd5b506004361061004c5760003560e01c80630da9fa32146100515780631f931c1c1461006d578063838e7c3a14610089578063f0b7db4e146100a5575b600080fd5b61006b6004803603810190610066919061167a565b6100c3565b005b61008760048036038101906100829190611743565b610269565b005b6100a3600480360381019061009e9190611919565b610377565b005b6100ad6104be565b6040516100ba9190611984565b60405180910390f35b6100cb6104e2565b60000160009054906101000a900473ffffffffffffffffffffffffffffffffffffffff1673ffffffffffffffffffffffffffffffffffffffff163373ffffffffffffffffffffffffffffffffffffffff161461015c576040517f08c379a0000000000000000000000000000000000000000000000000000000008152600401610153906119fc565b60405180910390fd5b6101b785859061016c9190611c99565b8484848080601f016020809104026020016040519081016040528093929190818152602001838380828437600081840152601f19601f8201169050808301925050505050505061050f565b7f000000000000000000000000000000000000000000000000000000000000000073ffffffffffffffffffffffffffffffffffffffff1663e245f0f3888888888888886040518863ffffffff1660e01b815260040161021c9796959493929190612044565b6020604051808303816000875af115801561023b573d6000803e3d6000fd5b505050506040513d601f19601f8201168201806040525081019061025f91906120b9565b5050505050505050565b6102716104e2565b60000160009054906101000a900473ffffffffffffffffffffffffffffffffffffffff1673ffffffffffffffffffffffffffffffffffffffff163373ffffffffffffffffffffffffffffffffffffffff1614610302576040517f08c379a00000000000000000000000000000000000000000000000000000000081526004016102f9906119fc565b60405180910390fd5b6103708585906103129190611c99565b8484848080601f016020809104026020016040519081016040528093929190818152602001838380828437600081840152601f19601f82011690508083019250505050505050610360610532565b61055f909392919063ffffffff16565b5050505050565b61037f6104e2565b60000160009054906101000a900473ffffffffffffffffffffffffffffffffffffffff1673ffffffffffffffffffffffffffffffffffffffff163373ffffffffffffffffffffffffffffffffffffffff1614610410576040517f08c379a0000000000000000000000000000000000000000000000000000000008152600401610407906119fc565b60405180910390fd5b60007f000000000000000000000000000000000000000000000000000000000000000073ffffffffffffffffffffffffffffffffffffffff16633f82973d84846040518363ffffffff1660e01b815260040161046d92919061215d565b602060405180830381865afa15801561048a573d6000803e3d6000fd5b505050506040513d601f19601f820116820180604052508101906104ae91906120b9565b90506104b9816107b9565b505050565b7f000000000000000000000000000000000000000000000000000000000000000081565b6000807f8a22373512790c48b83a1fe2efdd2888d4a917bcdc24d0adf63e60f67168046090508091505090565b61052d83838361051d610532565b61055f909392919063ffffffff16565b505050565b6000807f177481ac65e4292921c69f62d1cc7f57541261e5d61c8175cf4e36a01c9bfc9390508091505090565b60008460010160009054906101000a900461ffff1661ffff16905060008190506000806007831611156105a957866002016000600384901c81526020019081526020016000205490505b60005b86518110156107185760008782815181106105ca576105c961218d565b5b60200260200101519050600081602001519050600082604001515111610625576040517f08c379a000000000000000000000000000000000000000000000000000000000815260040161061c9061222e565b60405180910390fd5b6000600281111561063957610638611d33565b5b81600281111561064c5761064b611d33565b5b1415610676576106698585848d610882909392919063ffffffff16565b8095508196505050610709565b6001600281111561068a57610689611d33565b5b81600281111561069d5761069c611d33565b5b14156106bb576106b6828b610b4390919063ffffffff16565b610708565b6002808111156106ce576106cd611d33565b5b8160028111156106e1576106e0611d33565b5b1415610707576106fe8585848d610e20909392919063ffffffff16565b80955081965050505b5b5b505080806001019150506105ac565b5082821461074057818760010160006101000a81548161ffff021916908361ffff1602179055505b600060078316111561076b5780876002016000600385901c8152602001908152602001600020819055505b7f8faa70878671ccd212d20771b795c50af8fd3ff6cf27f4bde57e5d4de0aeb67386868660405161079e93929190612419565b60405180910390a16107b08585611325565b50505050505050565b60008060008373ffffffffffffffffffffffffffffffffffffffff16636d4ce63c6040518163ffffffff1660e01b8152600401600060405180830381865afa158015610809573d6000803e3d6000fd5b505050506040513d6000823e3d601f19601f8201168201806040525081019061083291906126f5565b92509250925061084383838361050f565b7f5d611f318680d00598bb735d61bacf0c514c6b50e1e5ad30040a4df2b12791c78430604051610874929190612780565b60405180910390a150505050565b6000803073ffffffffffffffffffffffffffffffffffffffff16836000015173ffffffffffffffffffffffffffffffffffffffff1614806108e257506108e1836000015173ffffffffffffffffffffffffffffffffffffffff166114e4565b5b610921576040517f08c379a00000000000000000000000000000000000000000000000000000000081526004016109189061281b565b60405180910390fd5b60005b836040015151811015610b335760008460400151828151811061094a5761094961218d565b5b602002602001015190506000886000016000837bffffffffffffffffffffffffffffffffffffffffffffffffffffffff19167bffffffffffffffffffffffffffffffffffffffffffffffffffffffff19168152602001908152602001600020549050600073ffffffffffffffffffffffffffffffffffffffff168160601c73ffffffffffffffffffffffffffffffffffffffff1614610a1e576040517f08c379a0000000000000000000000000000000000000000000000000000000008152600401610a15906128ad565b60405180910390fd5b8760001b866000015160601b6bffffffffffffffffffffffff191617896000016000847bffffffffffffffffffffffffffffffffffffffffffffffffffffffff19167bffffffffffffffffffffffffffffffffffffffffffffffffffffffff19168152602001908152602001600020819055506000600560078a16901b905080837bffffffffffffffffffffffffffffffffffffffffffffffffffffffff1916901c817fffffffff0000000000000000000000000000000000000000000000000000000060001b901c19891617975060e0811415610b1b57878a600201600060038c901c8152602001908152602001600020819055506000801b97505b88806001019950505050508080600101915050610924565b5084849150915094509492505050565b610b66816000015173ffffffffffffffffffffffffffffffffffffffff166114e4565b610ba5576040517f08c379a0000000000000000000000000000000000000000000000000000000008152600401610b9c9061293f565b60405180910390fd5b60005b816040015151811015610e1b57600082604001518281518110610bce57610bcd61218d565b5b602002602001015190506000846000016000837bffffffffffffffffffffffffffffffffffffffffffffffffffffffff19167bffffffffffffffffffffffffffffffffffffffffffffffffffffffff1916815260200190815260200160002054905060008160601c9050600073ffffffffffffffffffffffffffffffffffffffff168173ffffffffffffffffffffffffffffffffffffffff161415610ca8576040517f08c379a0000000000000000000000000000000000000000000000000000000008152600401610c9f906129ab565b60405180910390fd5b3073ffffffffffffffffffffffffffffffffffffffff168173ffffffffffffffffffffffffffffffffffffffff161415610d17576040517f08c379a0000000000000000000000000000000000000000000000000000000008152600401610d0e90612a3d565b60405180910390fd5b846000015173ffffffffffffffffffffffffffffffffffffffff168173ffffffffffffffffffffffffffffffffffffffff161415610d8a576040517f08c379a0000000000000000000000000000000000000000000000000000000008152600401610d8190612acf565b60405180910390fd5b846000015160601b6bffffffffffffffffffffffff19166bffffffffffffffffffffffff60001b831617866000016000857bffffffffffffffffffffffffffffffffffffffffffffffffffffffff19167bffffffffffffffffffffffffffffffffffffffffffffffffffffffff19168152602001908152602001600020819055505050508080600101915050610ba8565b505050565b600080600073ffffffffffffffffffffffffffffffffffffffff16836000015173ffffffffffffffffffffffffffffffffffffffff1614610e96576040517f08c379a0000000000000000000000000000000000000000000000000000000008152600401610e8d90612b61565b60405180910390fd5b6000600386901c9050600060078716905060005b85604001515181101561130a57600086604001518281518110610ed057610ecf61218d565b5b6020026020010151905060008a6000016000837bffffffffffffffffffffffffffffffffffffffffffffffffffffffff19167bffffffffffffffffffffffffffffffffffffffffffffffffffffffff19168152602001908152602001600020549050600073ffffffffffffffffffffffffffffffffffffffff168160601c73ffffffffffffffffffffffffffffffffffffffff161415610fa5576040517f08c379a0000000000000000000000000000000000000000000000000000000008152600401610f9c906129ab565b60405180910390fd5b3073ffffffffffffffffffffffffffffffffffffffff168160601c73ffffffffffffffffffffffffffffffffffffffff161415611017576040517f08c379a000000000000000000000000000000000000000000000000000000000815260040161100e90612a3d565b60405180910390fd5b6000801b89141561104c578480600190039550508a600201600086815260200190815260200160002054985060079350611056565b8380600190039450505b6000806000600587901b8c901b9250847bffffffffffffffffffffffffffffffffffffffffffffffffffffffff1916837bffffffffffffffffffffffffffffffffffffffffffffffffffffffff191614611178578d6000016000847bffffffffffffffffffffffffffffffffffffffffffffffffffffffff19167bffffffffffffffffffffffffffffffffffffffffffffffffffffffff19168152602001908152602001600020546bffffffffffffffffffffffff19166bffffffffffffffffffffffff60001b8516178e6000016000857bffffffffffffffffffffffffffffffffffffffffffffffffffffffff19167bffffffffffffffffffffffffffffffffffffffffffffffffffffffff19168152602001908152602001600020819055505b8d6000016000867bffffffffffffffffffffffffffffffffffffffffffffffffffffffff19167bffffffffffffffffffffffffffffffffffffffffffffffffffffffff191681526020019081526020016000206000905560008460001c61ffff169050600381901c9250600560078216901b91505087821461127e5760008e600201600084815260200190815260200160002054905081847bffffffffffffffffffffffffffffffffffffffffffffffffffffffff1916901c827fffffffff0000000000000000000000000000000000000000000000000000000060001b901c198216179050808f600201600085815260200190815260200160002081905550506112cf565b80837bffffffffffffffffffffffffffffffffffffffffffffffffffffffff1916901c817fffffffff0000000000000000000000000000000000000000000000000000000060001b901c198d16179b505b60008714156112f8578d6002016000898152602001908152602001600020600090556000801b9b505b50505050508080600101915050610eaa565b5080600383901b179650868693509350505094509492505050565b60008151141515600073ffffffffffffffffffffffffffffffffffffffff168373ffffffffffffffffffffffffffffffffffffffff161415151461139e576040517f08c379a000000000000000000000000000000000000000000000000000000000815260040161139590612bf3565b60405180910390fd5b600073ffffffffffffffffffffffffffffffffffffffff168273ffffffffffffffffffffffffffffffffffffffff16146114e0573073ffffffffffffffffffffffffffffffffffffffff168273ffffffffffffffffffffffffffffffffffffffff1614611464576114248273ffffffffffffffffffffffffffffffffffffffff166114e4565b611463576040517f08c379a000000000000000000000000000000000000000000000000000000000815260040161145a90612c85565b60405180910390fd5b5b60008273ffffffffffffffffffffffffffffffffffffffff168260405161148b9190612ce1565b600060405180830381855af49150503d80600081146114c6576040519150601f19603f3d011682016040523d82523d6000602084013e6114cb565b606091505b50509050806114de573d6000803e3d6000fd5b505b5050565b600080823b905060008111915050919050565b6000604051905090565b600080fd5b600080fd5b600080fd5b600080fd5b600080fd5b60008083601f8401126115305761152f61150b565b5b8235905067ffffffffffffffff81111561154d5761154c611510565b5b60208301915083600182028301111561156957611568611515565b5b9250929050565b60008083601f8401126115865761158561150b565b5b8235905067ffffffffffffffff8111156115a3576115a2611510565b5b6020830191508360208202830111156115bf576115be611515565b5b9250929050565b600073ffffffffffffffffffffffffffffffffffffffff82169050919050565b60006115f1826115c6565b9050919050565b611601816115e6565b811461160c57600080fd5b50565b60008135905061161e816115f8565b92915050565b60008083601f84011261163a5761163961150b565b5b8235905067ffffffffffffffff81111561165757611656611510565b5b60208301915083600182028301111561167357611672611515565b5b9250929050565b60008060008060008060006080888a03121561169957611698611501565b5b600088013567ffffffffffffffff8111156116b7576116b6611506565b5b6116c38a828b0161151a565b9750975050602088013567ffffffffffffffff8111156116e6576116e5611506565b5b6116f28a828b01611570565b955095505060406117058a828b0161160f565b935050606088013567ffffffffffffffff81111561172657611725611506565b5b6117328a828b01611624565b925092505092959891949750929550565b60008060008060006060868803121561175f5761175e611501565b5b600086013567ffffffffffffffff81111561177d5761177c611506565b5b61178988828901611570565b9550955050602061179c8882890161160f565b935050604086013567ffffffffffffffff8111156117bd576117bc611506565b5b6117c988828901611624565b92509250509295509295909350565b600080fd5b6000601f19601f8301169050919050565b7f4e487b7100000000000000000000000000000000000000000000000000000000600052604160045260246000fd5b611826826117dd565b810181811067ffffffffffffffff82111715611845576118446117ee565b5b80604052505050565b60006118586114f7565b9050611864828261181d565b919050565b600067ffffffffffffffff821115611884576118836117ee565b5b61188d826117dd565b9050602081019050919050565b82818337600083830152505050565b60006118bc6118b784611869565b61184e565b9050828152602081018484840111156118d8576118d76117d8565b5b6118e384828561189a565b509392505050565b600082601f830112611900576118ff61150b565b5b81356119108482602086016118a9565b91505092915050565b600080604083850312156119305761192f611501565b5b600061193e8582860161160f565b925050602083013567ffffffffffffffff81111561195f5761195e611506565b5b61196b858286016118eb565b9150509250929050565b61197e816115e6565b82525050565b60006020820190506119996000830184611975565b92915050565b600082825260208201905092915050565b7f4f776e61626c653a2073656e646572206d757374206265206f776e6572000000600082015250565b60006119e6601d8361199f565b91506119f1826119b0565b602082019050919050565b60006020820190508181036000830152611a15816119d9565b9050919050565b600067ffffffffffffffff821115611a3757611a366117ee565b5b602082029050602081019050919050565b600080fd5b600080fd5b60038110611a5f57600080fd5b50565b600081359050611a7181611a52565b92915050565b600067ffffffffffffffff821115611a9257611a916117ee565b5b602082029050602081019050919050565b60007fffffffff0000000000000000000000000000000000000000000000000000000082169050919050565b611ad881611aa3565b8114611ae357600080fd5b50565b600081359050611af581611acf565b92915050565b6000611b0e611b0984611a77565b61184e565b90508083825260208201905060208402830185811115611b3157611b30611515565b5b835b81811015611b5a5780611b468882611ae6565b845260208401935050602081019050611b33565b5050509392505050565b600082601f830112611b7957611b7861150b565b5b8135611b89848260208601611afb565b91505092915050565b600060608284031215611ba857611ba7611a48565b5b611bb2606061184e565b90506000611bc28482850161160f565b6000830152506020611bd684828501611a62565b602083015250604082013567ffffffffffffffff811115611bfa57611bf9611a4d565b5b611c0684828501611b64565b60408301525092915050565b6000611c25611c2084611a1c565b61184e565b90508083825260208201905060208402830185811115611c4857611c47611515565b5b835b81811015611c8f57803567ffffffffffffffff811115611c6d57611c6c61150b565b5b808601611c7a8982611b92565b85526020850194505050602081019050611c4a565b5050509392505050565b6000611ca6368484611c12565b905092915050565b6000611cba838561199f565b9350611cc783858461189a565b611cd0836117dd565b840190509392505050565b600082825260208201905092915050565b6000819050919050565b6000611d05602084018461160f565b905092915050565b611d16816115e6565b82525050565b6000611d2b6020840184611a62565b905092915050565b7f4e487b7100000000000000000000000000000000000000000000000000000000600052602160045260246000fd5b60038110611d7357611d72611d33565b5b50565b6000819050611d8482611d62565b919050565b6000611d9482611d76565b9050919050565b611da481611d89565b82525050565b600080fd5b600080fd5b600080fd5b60008083356001602003843603038112611dd657611dd5611db4565b5b83810192508235915060208301925067ffffffffffffffff821115611dfe57611dfd611daa565b5b602082023603841315611e1457611e13611daf565b5b509250929050565b600082825260208201905092915050565b6000819050919050565b611e4081611aa3565b82525050565b6000611e528383611e37565b60208301905092915050565b6000611e6d6020840184611ae6565b905092915050565b6000602082019050919050565b6000611e8e8385611e1c565b9350611e9982611e2d565b8060005b85811015611ed257611eaf8284611e5e565b611eb98882611e46565b9750611ec483611e75565b925050600181019050611e9d565b5085925050509392505050565b600060608301611ef26000840184611cf6565b611eff6000860182611d0d565b50611f0d6020840184611d1c565b611f1a6020860182611d9b565b50611f286040840184611db9565b8583036040870152611f3b838284611e82565b925050508091505092915050565b6000611f558383611edf565b905092915050565b600082356001606003833603038112611f7957611f78611db4565b5b82810191505092915050565b6000602082019050919050565b6000611f9e8385611cdb565b935083602084028501611fb084611cec565b8060005b87811015611ff4578484038952611fcb8284611f5d565b611fd58582611f49565b9450611fe083611f85565b925060208a01995050600181019050611fb4565b50829750879450505050509392505050565b600082825260208201905092915050565b60006120238385612006565b935061203083858461189a565b612039836117dd565b840190509392505050565b6000608082019050818103600083015261205f81898b611cae565b90508181036020830152612074818789611f92565b90506120836040830186611975565b8181036060830152612096818486612017565b905098975050505050505050565b6000815190506120b3816115f8565b92915050565b6000602082840312156120cf576120ce611501565b5b60006120dd848285016120a4565b91505092915050565b600081519050919050565b60005b8381101561210f5780820151818401526020810190506120f4565b8381111561211e576000848401525b50505050565b600061212f826120e6565b612139818561199f565b93506121498185602086016120f1565b612152816117dd565b840191505092915050565b60006040820190506121726000830185611975565b81810360208301526121848184612124565b90509392505050565b7f4e487b7100000000000000000000000000000000000000000000000000000000600052603260045260246000fd5b7f4469616d6f6e64426173653a206e6f2073656c6563746f72732073706563696660008201527f6965640000000000000000000000000000000000000000000000000000000000602082015250565b600061221860238361199f565b9150612223826121bc565b604082019050919050565b600060208201905081810360008301526122478161220b565b9050919050565b600081519050919050565b6000819050602082019050919050565b600081519050919050565b6000819050602082019050919050565b6000602082019050919050565b600061229c82612269565b6122a68185611e1c565b93506122b183612274565b8060005b838110156122e25781516122c98882611e46565b97506122d483612284565b9250506001810190506122b5565b5085935050505092915050565b60006060830160008301516123076000860182611d0d565b50602083015161231a6020860182611d9b565b50604083015184820360408601526123328282612291565b9150508091505092915050565b600061234b83836122ef565b905092915050565b6000602082019050919050565b600061236b8261224e565b6123758185611cdb565b93508360208202850161238785612259565b8060005b858110156123c357848403895281516123a4858261233f565b94506123af83612353565b925060208a0199505060018101905061238b565b50829750879550505050505092915050565b600081519050919050565b60006123eb826123d5565b6123f58185612006565b93506124058185602086016120f1565b61240e816117dd565b840191505092915050565b600060608201905081810360008301526124338186612360565b90506124426020830185611975565b818103604083015261245481846123e0565b9050949350505050565b60008151905061246d81611a52565b92915050565b60008151905061248281611acf565b92915050565b600061249b61249684611a77565b61184e565b905080838252602082019050602084028301858111156124be576124bd611515565b5b835b818110156124e757806124d38882612473565b8452602084019350506020810190506124c0565b5050509392505050565b600082601f8301126125065761250561150b565b5b8151612516848260208601612488565b91505092915050565b60006060828403121561253557612534611a48565b5b61253f606061184e565b9050600061254f848285016120a4565b60008301525060206125638482850161245e565b602083015250604082015167ffffffffffffffff81111561258757612586611a4d565b5b612593848285016124f1565b60408301525092915050565b60006125b26125ad84611a1c565b61184e565b905080838252602082019050602084028301858111156125d5576125d4611515565b5b835b8181101561261c57805167ffffffffffffffff8111156125fa576125f961150b565b5b808601612607898261251f565b855260208501945050506020810190506125d7565b5050509392505050565b600082601f83011261263b5761263a61150b565b5b815161264b84826020860161259f565b91505092915050565b600067ffffffffffffffff82111561266f5761266e6117ee565b5b612678826117dd565b9050602081019050919050565b600061269861269384612654565b61184e565b9050828152602081018484840111156126b4576126b36117d8565b5b6126bf8482856120f1565b509392505050565b600082601f8301126126dc576126db61150b565b5b81516126ec848260208601612685565b91505092915050565b60008060006060848603121561270e5761270d611501565b5b600084015167ffffffffffffffff81111561272c5761272b611506565b5b61273886828701612626565b9350506020612749868287016120a4565b925050604084015167ffffffffffffffff81111561276a57612769611506565b5b612776868287016126c7565b9150509250925092565b60006040820190506127956000830185611975565b6127a26020830184611975565b9392505050565b7f4469616d6f6e64426173653a204144442074617267657420686173206e6f206360008201527f6f64650000000000000000000000000000000000000000000000000000000000602082015250565b600061280560238361199f565b9150612810826127a9565b604082019050919050565b60006020820190508181036000830152612834816127f8565b9050919050565b7f4469616d6f6e64426173653a2073656c6563746f7220616c726561647920616460008201527f6465640000000000000000000000000000000000000000000000000000000000602082015250565b600061289760238361199f565b91506128a28261283b565b604082019050919050565b600060208201905081810360008301526128c68161288a565b9050919050565b7f4469616d6f6e64426173653a205245504c41434520746172676574206861732060008201527f6e6f20636f646500000000000000000000000000000000000000000000000000602082015250565b600061292960278361199f565b9150612934826128cd565b604082019050919050565b600060208201905081810360008301526129588161291c565b9050919050565b7f4469616d6f6e64426173653a2073656c6563746f72206e6f7420666f756e6400600082015250565b6000612995601f8361199f565b91506129a08261295f565b602082019050919050565b600060208201905081810360008301526129c481612988565b9050919050565b7f4469616d6f6e64426173653a2073656c6563746f7220697320696d6d7574616260008201527f6c65000000000000000000000000000000000000000000000000000000000000602082015250565b6000612a2760228361199f565b9150612a32826129cb565b604082019050919050565b60006020820190508181036000830152612a5681612a1a565b9050919050565b7f4469616d6f6e64426173653a205245504c41434520746172676574206973206960008201527f64656e746963616c000000000000000000000000000000000000000000000000602082015250565b6000612ab960288361199f565b9150612ac482612a5d565b604082019050919050565b60006020820190508181036000830152612ae881612aac565b9050919050565b7f4469616d6f6e64426173653a2052454d4f564520746172676574206d7573742060008201527f6265207a65726f20616464726573730000000000000000000000000000000000602082015250565b6000612b4b602f8361199f565b9150612b5682612aef565b604082019050919050565b60006020820190508181036000830152612b7a81612b3e565b9050919050565b7f4469616d6f6e64426173653a20696e76616c696420696e697469616c697a617460008201527f696f6e20706172616d6574657273000000000000000000000000000000000000602082015250565b6000612bdd602e8361199f565b9150612be882612b81565b604082019050919050565b60006020820190508181036000830152612c0c81612bd0565b9050919050565b7f4469616d6f6e64426173653a20696e697469616c697a6174696f6e207461726760008201527f657420686173206e6f20636f6465000000000000000000000000000000000000602082015250565b6000612c6f602e8361199f565b9150612c7a82612c13565b604082019050919050565b60006020820190508181036000830152612c9e81612c62565b9050919050565b600081905092915050565b6000612cbb826123d5565b612cc58185612ca5565b9350612cd58185602086016120f1565b80840191505092915050565b6000612ced8284612cb0565b91508190509291505056fea26469706673582212204f2fbe6016e592674635505ac4aa740fc4d67d41c24297986d33890ff413a18964736f6c634300080c0033",
  "linkReferences": {},
  "deployedLinkReferences": {}
}