{
  "_format": "hh-sol-artifact-1",
  "contractName": "Governance",
  "sourceName": "contracts/_library/ontap/governance/logic/Governance.sol",
  "abi": [
    {
      "anonymous": false,
      "inputs": [
        {
          "indexed": false,
          "internalType": "uint256",
          "name": "_proposalId",
          "type": "uint256"
        },
        {
          "indexed": false,
          "internalType": "bytes",
          "name": "_error",
          "type": "bytes"
        }
      ],
      "name": "ProposalExecutionFailed",
      "type": "event"
    },
    {
      "anonymous": false,
      "inputs": [
        {
          "indexed": false,
          "internalType": "uint256",
          "name": "_proposalId",
          "type": "uint256"
        },
        {
          "indexed": false,
          "internalType": "bool",
          "name": "_passed",
          "type": "bool"
        }
      ],
      "name": "ProposalExecutionSuccessful",
      "type": "event"
    },
    {
      "anonymous": false,
      "inputs": [
        {
          "indexed": false,
          "internalType": "address",
          "name": "_proposer",
          "type": "address"
        },
        {
          "indexed": false,
          "internalType": "address",
          "name": "_proposalContract",
          "type": "address"
        },
        {
          "indexed": false,
          "internalType": "uint256",
          "name": "_deadline",
          "type": "uint256"
        }
      ],
      "name": "Propose",
      "type": "event"
    },
    {
      "anonymous": false,
      "inputs": [
        {
          "indexed": true,
          "internalType": "uint256",
          "name": "_proposalId",
          "type": "uint256"
        },
        {
          "indexed": true,
          "internalType": "address",
          "name": "_voter",
          "type": "address"
        },
        {
          "indexed": false,
          "internalType": "uint256",
          "name": "_votes",
          "type": "uint256"
        },
        {
          "indexed": false,
          "internalType": "bool",
          "name": "_support",
          "type": "bool"
        }
      ],
      "name": "UnVote",
      "type": "event"
    },
    {
      "anonymous": false,
      "inputs": [
        {
          "indexed": true,
          "internalType": "uint256",
          "name": "_proposalId",
          "type": "uint256"
        },
        {
          "indexed": true,
          "internalType": "address",
          "name": "_voter",
          "type": "address"
        },
        {
          "indexed": false,
          "internalType": "uint256",
          "name": "_votes",
          "type": "uint256"
        },
        {
          "indexed": false,
          "internalType": "bool",
          "name": "_support",
          "type": "bool"
        }
      ],
      "name": "Vote",
      "type": "event"
    },
    {
      "inputs": [
        {
          "internalType": "uint256",
          "name": "_proposalId",
          "type": "uint256"
        }
      ],
      "name": "executeProposal",
      "outputs": [],
      "stateMutability": "nonpayable",
      "type": "function"
    },
    {
      "inputs": [
        {
          "internalType": "uint256",
          "name": "_proposalId",
          "type": "uint256"
        }
      ],
      "name": "proposal",
      "outputs": [
        {
          "components": [
            {
              "internalType": "address",
              "name": "proposalContract",
              "type": "address"
            },
            {
              "internalType": "address",
              "name": "proposer",
              "type": "address"
            },
            {
              "internalType": "uint64",
              "name": "deadline",
              "type": "uint64"
            },
            {
              "internalType": "uint96",
              "name": "againstVotes",
              "type": "uint96"
            },
            {
              "internalType": "uint96",
              "name": "forVotes",
              "type": "uint96"
            },
            {
              "internalType": "enum Governance.ProposalStatus",
              "name": "status",
              "type": "uint8"
            }
          ],
          "internalType": "struct Governance.RetrievedProposal",
          "name": "retrievedProposal",
          "type": "tuple"
        }
      ],
      "stateMutability": "view",
      "type": "function"
    },
    {
      "inputs": [],
      "name": "proposalCount",
      "outputs": [
        {
          "internalType": "uint256",
          "name": "",
          "type": "uint256"
        }
      ],
      "stateMutability": "view",
      "type": "function"
    },
    {
      "inputs": [
        {
          "internalType": "uint256",
          "name": "_proposalId",
          "type": "uint256"
        }
      ],
      "name": "proposalStatus",
      "outputs": [
        {
          "internalType": "enum Governance.ProposalStatus",
          "name": "status",
          "type": "uint8"
        }
      ],
      "stateMutability": "view",
      "type": "function"
    },
    {
      "inputs": [
        {
          "internalType": "address",
          "name": "_proposalContract",
          "type": "address"
        },
        {
          "internalType": "uint256",
          "name": "_deadline",
          "type": "uint256"
        }
      ],
      "name": "propose",
      "outputs": [
        {
          "internalType": "uint256",
          "name": "proposalId",
          "type": "uint256"
        }
      ],
      "stateMutability": "nonpayable",
      "type": "function"
    },
    {
      "inputs": [
        {
          "internalType": "uint256",
          "name": "_proposalId",
          "type": "uint256"
        }
      ],
      "name": "unvote",
      "outputs": [],
      "stateMutability": "nonpayable",
      "type": "function"
    },
    {
      "inputs": [
        {
          "internalType": "uint256",
          "name": "_proposalId",
          "type": "uint256"
        },
        {
          "internalType": "bool",
          "name": "_support",
          "type": "bool"
        }
      ],
      "name": "vote",
      "outputs": [],
      "stateMutability": "nonpayable",
      "type": "function"
    },
    {
      "stateMutability": "payable",
      "type": "receive"
    }
  ],
  "bytecode": "0x608060405234801561001057600080fd5b5061470a806100206000396000f3fe6080604052600436106100745760003560e01c8063589de5df1161004e578063589de5df1461010f57806374c260cf1461014c578063c9d27afe14610189578063da35c664146101b25761007b565b80630d61b5191461008057806330326c17146100a957806351ec4285146100e65761007b565b3661007b57005b600080fd5b34801561008c57600080fd5b506100a760048036038101906100a29190612d17565b6101dd565b005b3480156100b557600080fd5b506100d060048036038101906100cb9190612d17565b6107fc565b6040516100dd9190612ec1565b60405180910390f35b3480156100f257600080fd5b5061010d60048036038101906101089190612d17565b610963565b005b34801561011b57600080fd5b5061013660048036038101906101319190612f08565b610fba565b6040516101439190612f57565b60405180910390f35b34801561015857600080fd5b50610173600480360381019061016e9190612d17565b6114c6565b6040516101809190612f81565b60405180910390f35b34801561019557600080fd5b506101b060048036038101906101ab9190612fd4565b611643565b005b3480156101be57600080fd5b506101c7611b6d565b6040516101d49190612f57565b60405180910390f35b60006101e7611b99565b905060006101f3611bc6565b90506000816001016000858152602001908152602001600020905060008160030160009054906101000a900473ffffffffffffffffffffffffffffffffffffffff169050600073ffffffffffffffffffffffffffffffffffffffff168173ffffffffffffffffffffffffffffffffffffffff1614156102a7576040517f08c379a000000000000000000000000000000000000000000000000000000000815260040161029e90613097565b60405180910390fd5b8160030160179054906101000a900467ffffffffffffffff1667ffffffffffffffff16421161030b576040517f08c379a000000000000000000000000000000000000000000000000000000000815260040161030290613103565b60405180910390fd5b600115158260030160149054906101000a900460ff1615151415610364576040517f08c379a000000000000000000000000000000000000000000000000000000000815260040161035b90613195565b60405180910390fd5b60018260030160146101000a81548160ff02191690831515021790555060008460020154905060008360040160009054906101000a90046bffffffffffffffffffffffff166bffffffffffffffffffffffff169050600084600401600c9054906101000a90046bffffffffffffffffffffffff166bffffffffffffffffffffffff1690506000818311801561041b57508660000160019054906101000a900460ff1660ff1688600201546104189190613213565b83115b905060008660000160008773ffffffffffffffffffffffffffffffffffffffff1673ffffffffffffffffffffffffffffffffffffffff16815260200190815260200160002060000160009054906101000a90046bffffffffffffffffffffffff166bffffffffffffffffffffffff169050811561075d5760008760010160009054906101000a900473ffffffffffffffffffffffffffffffffffffffff1690506000813b905060008111156106ad5760006104d58d611bf3565b905080156105fe5760008b60000160049054906101000a900460ff1660ff16896104ff9190613213565b90508085111561050d578094505b60008c60000160029054906101000a900460ff1660ff16905080866105329190613213565b6bffffffffffffffffffffffff168e60020160008282546105539190613244565b9250508190555080866105669190613213565b8e60000160008d73ffffffffffffffffffffffffffffffffffffffff1673ffffffffffffffffffffffffffffffffffffffff16815260200190815260200160002060008282546105b69190613244565b925050819055507f989b5c18710bf76d31c802ce40e50b6ab61dd73dedbe4b2bf6808d35a517d2d18f60016040516105ef9291906132a9565b60405180910390a150506106a7565b60018a60030160156101000a81548160ff02191690831515021790555060008a60030160146101000a81548160ff0219169083151502179055507f0418cb6608187ab509202d493686813fe6cad355c4250c11655e139d9b96d2138d6040518060400160405280601381526020017f44656c656761746563616c6c206661696c65640000000000000000000000000081525060405161069e92919061336b565b60405180910390a15b50610756565b60018960030160156101000a81548160ff02191690831515021790555060008960030160146101000a81548160ff0219169083151502179055507f0418cb6608187ab509202d493686813fe6cad355c4250c11655e139d9b96d2138c6040518060400160405280601b81526020017f50726f706f73616c20636f6e74726163742073697a652069732030000000000081525060405161074d92919061336b565b60405180910390a15b50506107f0565b808960000160008873ffffffffffffffffffffffffffffffffffffffff1673ffffffffffffffffffffffffffffffffffffffff16815260200190815260200160002060008282546107ae919061339b565b925050819055507f989b5c18710bf76d31c802ce40e50b6ab61dd73dedbe4b2bf6808d35a517d2d18a60006040516107e79291906132a9565b60405180910390a15b50505050505050505050565b610804612c33565b600061080e611bc6565b9050600081600101600085815260200190815260200160002090506040518060c001604052808260010160009054906101000a900473ffffffffffffffffffffffffffffffffffffffff1673ffffffffffffffffffffffffffffffffffffffff1681526020018260030160009054906101000a900473ffffffffffffffffffffffffffffffffffffffff1673ffffffffffffffffffffffffffffffffffffffff1681526020018260030160179054906101000a900467ffffffffffffffff1667ffffffffffffffff16815260200182600401600c9054906101000a90046bffffffffffffffffffffffff166bffffffffffffffffffffffff1681526020018260040160009054906101000a90046bffffffffffffffffffffffff166bffffffffffffffffffffffff168152602001610945866114c6565b600681111561095757610956612dcf565b5b81525092505050919050565b600061096d611b99565b90506000610979611bc6565b90508060000160099054906101000a900462ffffff1662ffffff1683106109d5576040517f08c379a00000000000000000000000000000000000000000000000000000000081526004016109cc90613441565b60405180910390fd5b600081600101600085815260200190815260200160002090508060030160179054906101000a900467ffffffffffffffff1667ffffffffffffffff164210610a52576040517f08c379a0000000000000000000000000000000000000000000000000000000008152600401610a49906134ad565b60405180910390fd5b3373ffffffffffffffffffffffffffffffffffffffff168160030160009054906101000a900473ffffffffffffffffffffffffffffffffffffffff1673ffffffffffffffffffffffffffffffffffffffff161415610ae5576040517f08c379a0000000000000000000000000000000000000000000000000000000008152600401610adc9061353f565b60405180910390fd5b60008160000160003373ffffffffffffffffffffffffffffffffffffffff1673ffffffffffffffffffffffffffffffffffffffff16815260200190815260200160002060000160009054906101000a90046bffffffffffffffffffffffff166bffffffffffffffffffffffff16905060008260000160003373ffffffffffffffffffffffffffffffffffffffff1673ffffffffffffffffffffffffffffffffffffffff168152602001908152602001600020600001600c9054906101000a900460ff16905060008211610bed576040517f08c379a0000000000000000000000000000000000000000000000000000000008152600401610be4906135ab565b60405180910390fd5b8015610c5157818360040160008282829054906101000a90046bffffffffffffffffffffffff16610c1e91906135cb565b92506101000a8154816bffffffffffffffffffffffff02191690836bffffffffffffffffffffffff160217905550610cab565b8183600401600c8282829054906101000a90046bffffffffffffffffffffffff16610c7c91906135cb565b92506101000a8154816bffffffffffffffffffffffff02191690836bffffffffffffffffffffffff1602179055505b8260000160003373ffffffffffffffffffffffffffffffffffffffff1673ffffffffffffffffffffffffffffffffffffffff168152602001908152602001600020600080820160006101000a8154906bffffffffffffffffffffffff021916905560008201600c6101000a81549060ff0219169055505060008460020160003373ffffffffffffffffffffffffffffffffffffffff1673ffffffffffffffffffffffffffffffffffffffff168152602001908152602001600020905060008180549050905060005b81811015610dd75788838281548110610d8f57610d8e6135ff565b5b90600052602060002090600a91828204019190066003029054906101000a900462ffffff1662ffffff161415610dc457610dd7565b8080610dcf9061362e565b915050610d73565b6000600183610de6919061339b565b9050818114610e6c57838181548110610e0257610e016135ff565b5b90600052602060002090600a91828204019190066003029054906101000a900462ffffff16848381548110610e3a57610e396135ff565b5b90600052602060002090600a91828204019190066003026101000a81548162ffffff021916908362ffffff1602179055505b83805480610e7d57610e7c613677565b5b60019003818190600052602060002090600a91828204019190066003026101000a81549062ffffff021916905590553373ffffffffffffffffffffffffffffffffffffffff168a7f9f1f3135d5625fc2500de56ba019d8c41fa224483192466e055e44447121c8208888604051610ef59291906132a9565b60405180910390a360008860000160039054906101000a900460ff1660ff1690508087610f229190613213565b6bffffffffffffffffffffffff168a6002016000828254610f43919061339b565b925050819055508087610f569190613213565b8a60000160003373ffffffffffffffffffffffffffffffffffffffff1673ffffffffffffffffffffffffffffffffffffffff1681526020019081526020016000206000828254610fa6919061339b565b925050819055505050505050505050505050565b6000610fdb8373ffffffffffffffffffffffffffffffffffffffff16611c4b565b61101a576040517f08c379a0000000000000000000000000000000000000000000000000000000008152600401611011906136f2565b60405180910390fd5b6000611024611b99565b90506000611030611bc6565b9050610e108160000160079054906101000a900461ffff160261ffff1642018411611090576040517f08c379a000000000000000000000000000000000000000000000000000000000815260040161108790613784565b60405180910390fd5b610e108160000160059054906101000a900461ffff160261ffff16420184106110ee576040517f08c379a00000000000000000000000000000000000000000000000000000000081526004016110e590613816565b60405180910390fd5b60008260000160003373ffffffffffffffffffffffffffffffffffffffff1673ffffffffffffffffffffffffffffffffffffffff1681526020019081526020016000205490506000836002015490508260000160009054906101000a900460ff1660ff168161115d9190613213565b82101561119f576040517f08c379a0000000000000000000000000000000000000000000000000000000008152600401611196906138a8565b60405180910390fd5b82600001600981819054906101000a900462ffffff16809291906111c2906138d7565b91906101000a81548162ffffff021916908362ffffff16021790555062ffffff16945060008360010160008781526020019081526020016000209050338160030160006101000a81548173ffffffffffffffffffffffffffffffffffffffff021916908373ffffffffffffffffffffffffffffffffffffffff160217905550878160010160006101000a81548173ffffffffffffffffffffffffffffffffffffffff021916908373ffffffffffffffffffffffffffffffffffffffff160217905550868160030160176101000a81548167ffffffffffffffff021916908367ffffffffffffffff1602179055507f7635f1d87b47fba9f2b09e56eb4be75cca030e0cb179c1602ac9261d39a8f5c13389896040516112e293929190613912565b60405180910390a1828160040160006101000a8154816bffffffffffffffffffffffff02191690836bffffffffffffffffffffffff1602179055506040518060400160405280846bffffffffffffffffffffffff168152602001600115158152508160000160003373ffffffffffffffffffffffffffffffffffffffff1673ffffffffffffffffffffffffffffffffffffffff16815260200190815260200160002060008201518160000160006101000a8154816bffffffffffffffffffffffff02191690836bffffffffffffffffffffffff160217905550602082015181600001600c6101000a81548160ff0219169083151502179055509050508360020160003373ffffffffffffffffffffffffffffffffffffffff1673ffffffffffffffffffffffffffffffffffffffff1681526020019081526020016000208690806001815401808255809150506001900390600052602060002090600a91828204019190066003029091909190916101000a81548162ffffff021916908362ffffff1602179055503373ffffffffffffffffffffffffffffffffffffffff16867f833b8bad1ff76b718af5adb72da0547533a1fb1ff56639c0b2597d636830b0a78560016040516114b39291906132a9565b60405180910390a3505050505092915050565b6000806114d1611b99565b905060006114dd611bc6565b90506000816001016000868152602001908152602001600020905060008160030160179054906101000a900467ffffffffffffffff1667ffffffffffffffff1690506000811415611531576000945061163a565b804210156115425760049450611639565b8160030160159054906101000a900460ff16156115625760039450611638565b60008260040160009054906101000a90046bffffffffffffffffffffffff166bffffffffffffffffffffffff169050600083600401600c9054906101000a90046bffffffffffffffffffffffff166bffffffffffffffffffffffff16821180156115ee57508460000160019054906101000a900460ff1660ff1686600201546115eb9190613213565b82115b90508360030160149054906101000a900460ff1615611620578015611616576005965061161b565b600696505b611635565b801561162f5760019650611634565b600296505b5b50505b5b5b50505050919050565b600061164d611b99565b90506000611659611bc6565b90508060000160099054906101000a900462ffffff1662ffffff1684106116b5576040517f08c379a00000000000000000000000000000000000000000000000000000000081526004016116ac90613441565b60405180910390fd5b600081600101600086815260200190815260200160002090508060030160179054906101000a900467ffffffffffffffff1667ffffffffffffffff164210611732576040517f08c379a0000000000000000000000000000000000000000000000000000000008152600401611729906134ad565b60405180910390fd5b60008160000160003373ffffffffffffffffffffffffffffffffffffffff1673ffffffffffffffffffffffffffffffffffffffff16815260200190815260200160002060000160009054906101000a90046bffffffffffffffffffffffff166bffffffffffffffffffffffff16146117df576040517f08c379a00000000000000000000000000000000000000000000000000000000081526004016117d690613995565b60405180910390fd5b60008360000160003373ffffffffffffffffffffffffffffffffffffffff1673ffffffffffffffffffffffffffffffffffffffff168152602001908152602001600020549050841561188957808260040160008282829054906101000a90046bffffffffffffffffffffffff1661185691906139b5565b92506101000a8154816bffffffffffffffffffffffff02191690836bffffffffffffffffffffffff1602179055506118e3565b8082600401600c8282829054906101000a90046bffffffffffffffffffffffff166118b491906139b5565b92506101000a8154816bffffffffffffffffffffffff02191690836bffffffffffffffffffffffff1602179055505b6040518060400160405280826bffffffffffffffffffffffff1681526020018615158152508260000160003373ffffffffffffffffffffffffffffffffffffffff1673ffffffffffffffffffffffffffffffffffffffff16815260200190815260200160002060008201518160000160006101000a8154816bffffffffffffffffffffffff02191690836bffffffffffffffffffffffff160217905550602082015181600001600c6101000a81548160ff0219169083151502179055509050508260020160003373ffffffffffffffffffffffffffffffffffffffff1673ffffffffffffffffffffffffffffffffffffffff1681526020019081526020016000208690806001815401808255809150506001900390600052602060002090600a91828204019190066003029091909190916101000a81548162ffffff021916908362ffffff1602179055503373ffffffffffffffffffffffffffffffffffffffff16867f833b8bad1ff76b718af5adb72da0547533a1fb1ff56639c0b2597d636830b0a78388604051611a779291906132a9565b60405180910390a360008360000160049054906101000a900460ff1660ff168560020154611aa59190613213565b905080821115611ab3578091505b60008460000160039054906101000a900460ff1660ff1690508083611ad89190613213565b6bffffffffffffffffffffffff16866002016000828254611af99190613244565b925050819055508083611b0c9190613213565b8660000160003373ffffffffffffffffffffffffffffffffffffffff1673ffffffffffffffffffffffffffffffffffffffff1681526020019081526020016000206000828254611b5c9190613244565b925050819055505050505050505050565b600080611b78611bc6565b90508060000160099054906101000a900462ffffff1662ffffff1691505090565b6000807fc991b2e918acaba8e5721668ed0b1982684e5a8692a621bcd2d7ef326bb015b490508091505090565b6000807ff5ec48837faef7380c2410b7ec57ef09fd7d96fda490ccadb727cfb7d8cafdf790508091505090565b600080611bfe611bc6565b600101600084815260200190815260200160002060010160009054906101000a900473ffffffffffffffffffffffffffffffffffffffff169050611c4181611c5e565b6001915050919050565b600080823b905060008111915050919050565b60008060008373ffffffffffffffffffffffffffffffffffffffff16636d4ce63c6040518163ffffffff1660e01b8152600401600060405180830381865afa158015611cae573d6000803e3d6000fd5b505050506040513d6000823e3d601f19601f82011682018060405250810190611cd79190613de2565b925092509250611ce8838383611d27565b7f5d611f318680d00598bb735d61bacf0c514c6b50e1e5ad30040a4df2b12791c78430604051611d19929190613e6d565b60405180910390a150505050565b611d45838383611d35611d4a565b611d77909392919063ffffffff16565b505050565b6000807f177481ac65e4292921c69f62d1cc7f57541261e5d61c8175cf4e36a01c9bfc9390508091505090565b60008460010160009054906101000a900461ffff1661ffff1690506000819050600080600783161115611dc157866002016000600384901c81526020019081526020016000205490505b60005b8651811015611f30576000878281518110611de257611de16135ff565b5b60200260200101519050600081602001519050600082604001515111611e3d576040517f08c379a0000000000000000000000000000000000000000000000000000000008152600401611e3490613f08565b60405180910390fd5b60006002811115611e5157611e50612dcf565b5b816002811115611e6457611e63612dcf565b5b1415611e8e57611e818585848d611fd1909392919063ffffffff16565b8095508196505050611f21565b60016002811115611ea257611ea1612dcf565b5b816002811115611eb557611eb4612dcf565b5b1415611ed357611ece828b61229290919063ffffffff16565b611f20565b600280811115611ee657611ee5612dcf565b5b816002811115611ef957611ef8612dcf565b5b1415611f1f57611f168585848d61256f909392919063ffffffff16565b80955081965050505b5b5b50508080600101915050611dc4565b50828214611f5857818760010160006101000a81548161ffff021916908361ffff1602179055505b6000600783161115611f835780876002016000600385901c8152602001908152602001600020819055505b7f8faa70878671ccd212d20771b795c50af8fd3ff6cf27f4bde57e5d4de0aeb673868686604051611fb693929190614140565b60405180910390a1611fc88585612a74565b50505050505050565b6000803073ffffffffffffffffffffffffffffffffffffffff16836000015173ffffffffffffffffffffffffffffffffffffffff1614806120315750612030836000015173ffffffffffffffffffffffffffffffffffffffff16611c4b565b5b612070576040517f08c379a0000000000000000000000000000000000000000000000000000000008152600401612067906141f7565b60405180910390fd5b60005b83604001515181101561228257600084604001518281518110612099576120986135ff565b5b602002602001015190506000886000016000837bffffffffffffffffffffffffffffffffffffffffffffffffffffffff19167bffffffffffffffffffffffffffffffffffffffffffffffffffffffff19168152602001908152602001600020549050600073ffffffffffffffffffffffffffffffffffffffff168160601c73ffffffffffffffffffffffffffffffffffffffff161461216d576040517f08c379a000000000000000000000000000000000000000000000000000000000815260040161216490614289565b60405180910390fd5b8760001b866000015160601b6bffffffffffffffffffffffff191617896000016000847bffffffffffffffffffffffffffffffffffffffffffffffffffffffff19167bffffffffffffffffffffffffffffffffffffffffffffffffffffffff19168152602001908152602001600020819055506000600560078a16901b905080837bffffffffffffffffffffffffffffffffffffffffffffffffffffffff1916901c817fffffffff0000000000000000000000000000000000000000000000000000000060001b901c19891617975060e081141561226a57878a600201600060038c901c8152602001908152602001600020819055506000801b97505b88806001019950505050508080600101915050612073565b5084849150915094509492505050565b6122b5816000015173ffffffffffffffffffffffffffffffffffffffff16611c4b565b6122f4576040517f08c379a00000000000000000000000000000000000000000000000000000000081526004016122eb9061431b565b60405180910390fd5b60005b81604001515181101561256a5760008260400151828151811061231d5761231c6135ff565b5b602002602001015190506000846000016000837bffffffffffffffffffffffffffffffffffffffffffffffffffffffff19167bffffffffffffffffffffffffffffffffffffffffffffffffffffffff1916815260200190815260200160002054905060008160601c9050600073ffffffffffffffffffffffffffffffffffffffff168173ffffffffffffffffffffffffffffffffffffffff1614156123f7576040517f08c379a00000000000000000000000000000000000000000000000000000000081526004016123ee90614387565b60405180910390fd5b3073ffffffffffffffffffffffffffffffffffffffff168173ffffffffffffffffffffffffffffffffffffffff161415612466576040517f08c379a000000000000000000000000000000000000000000000000000000000815260040161245d90614419565b60405180910390fd5b846000015173ffffffffffffffffffffffffffffffffffffffff168173ffffffffffffffffffffffffffffffffffffffff1614156124d9576040517f08c379a00000000000000000000000000000000000000000000000000000000081526004016124d0906144ab565b60405180910390fd5b846000015160601b6bffffffffffffffffffffffff19166bffffffffffffffffffffffff60001b831617866000016000857bffffffffffffffffffffffffffffffffffffffffffffffffffffffff19167bffffffffffffffffffffffffffffffffffffffffffffffffffffffff191681526020019081526020016000208190555050505080806001019150506122f7565b505050565b600080600073ffffffffffffffffffffffffffffffffffffffff16836000015173ffffffffffffffffffffffffffffffffffffffff16146125e5576040517f08c379a00000000000000000000000000000000000000000000000000000000081526004016125dc9061453d565b60405180910390fd5b6000600386901c9050600060078716905060005b856040015151811015612a595760008660400151828151811061261f5761261e6135ff565b5b6020026020010151905060008a6000016000837bffffffffffffffffffffffffffffffffffffffffffffffffffffffff19167bffffffffffffffffffffffffffffffffffffffffffffffffffffffff19168152602001908152602001600020549050600073ffffffffffffffffffffffffffffffffffffffff168160601c73ffffffffffffffffffffffffffffffffffffffff1614156126f4576040517f08c379a00000000000000000000000000000000000000000000000000000000081526004016126eb90614387565b60405180910390fd5b3073ffffffffffffffffffffffffffffffffffffffff168160601c73ffffffffffffffffffffffffffffffffffffffff161415612766576040517f08c379a000000000000000000000000000000000000000000000000000000000815260040161275d90614419565b60405180910390fd5b6000801b89141561279b578480600190039550508a6002016000868152602001908152602001600020549850600793506127a5565b8380600190039450505b6000806000600587901b8c901b9250847bffffffffffffffffffffffffffffffffffffffffffffffffffffffff1916837bffffffffffffffffffffffffffffffffffffffffffffffffffffffff1916146128c7578d6000016000847bffffffffffffffffffffffffffffffffffffffffffffffffffffffff19167bffffffffffffffffffffffffffffffffffffffffffffffffffffffff19168152602001908152602001600020546bffffffffffffffffffffffff19166bffffffffffffffffffffffff60001b8516178e6000016000857bffffffffffffffffffffffffffffffffffffffffffffffffffffffff19167bffffffffffffffffffffffffffffffffffffffffffffffffffffffff19168152602001908152602001600020819055505b8d6000016000867bffffffffffffffffffffffffffffffffffffffffffffffffffffffff19167bffffffffffffffffffffffffffffffffffffffffffffffffffffffff191681526020019081526020016000206000905560008460001c61ffff169050600381901c9250600560078216901b9150508782146129cd5760008e600201600084815260200190815260200160002054905081847bffffffffffffffffffffffffffffffffffffffffffffffffffffffff1916901c827fffffffff0000000000000000000000000000000000000000000000000000000060001b901c198216179050808f60020160008581526020019081526020016000208190555050612a1e565b80837bffffffffffffffffffffffffffffffffffffffffffffffffffffffff1916901c817fffffffff0000000000000000000000000000000000000000000000000000000060001b901c198d16179b505b6000871415612a47578d6002016000898152602001908152602001600020600090556000801b9b505b505050505080806001019150506125f9565b5080600383901b179650868693509350505094509492505050565b60008151141515600073ffffffffffffffffffffffffffffffffffffffff168373ffffffffffffffffffffffffffffffffffffffff1614151514612aed576040517f08c379a0000000000000000000000000000000000000000000000000000000008152600401612ae4906145cf565b60405180910390fd5b600073ffffffffffffffffffffffffffffffffffffffff168273ffffffffffffffffffffffffffffffffffffffff1614612c2f573073ffffffffffffffffffffffffffffffffffffffff168273ffffffffffffffffffffffffffffffffffffffff1614612bb357612b738273ffffffffffffffffffffffffffffffffffffffff16611c4b565b612bb2576040517f08c379a0000000000000000000000000000000000000000000000000000000008152600401612ba990614661565b60405180910390fd5b5b60008273ffffffffffffffffffffffffffffffffffffffff1682604051612bda91906146bd565b600060405180830381855af49150503d8060008114612c15576040519150601f19603f3d011682016040523d82523d6000602084013e612c1a565b606091505b5050905080612c2d573d6000803e3d6000fd5b505b5050565b6040518060c00160405280600073ffffffffffffffffffffffffffffffffffffffff168152602001600073ffffffffffffffffffffffffffffffffffffffff168152602001600067ffffffffffffffff16815260200160006bffffffffffffffffffffffff16815260200160006bffffffffffffffffffffffff16815260200160006006811115612cc757612cc6612dcf565b5b81525090565b6000604051905090565b600080fd5b600080fd5b6000819050919050565b612cf481612ce1565b8114612cff57600080fd5b50565b600081359050612d1181612ceb565b92915050565b600060208284031215612d2d57612d2c612cd7565b5b6000612d3b84828501612d02565b91505092915050565b600073ffffffffffffffffffffffffffffffffffffffff82169050919050565b6000612d6f82612d44565b9050919050565b612d7f81612d64565b82525050565b600067ffffffffffffffff82169050919050565b612da281612d85565b82525050565b60006bffffffffffffffffffffffff82169050919050565b612dc981612da8565b82525050565b7f4e487b7100000000000000000000000000000000000000000000000000000000600052602160045260246000fd5b60078110612e0f57612e0e612dcf565b5b50565b6000819050612e2082612dfe565b919050565b6000612e3082612e12565b9050919050565b612e4081612e25565b82525050565b60c082016000820151612e5c6000850182612d76565b506020820151612e6f6020850182612d76565b506040820151612e826040850182612d99565b506060820151612e956060850182612dc0565b506080820151612ea86080850182612dc0565b5060a0820151612ebb60a0850182612e37565b50505050565b600060c082019050612ed66000830184612e46565b92915050565b612ee581612d64565b8114612ef057600080fd5b50565b600081359050612f0281612edc565b92915050565b60008060408385031215612f1f57612f1e612cd7565b5b6000612f2d85828601612ef3565b9250506020612f3e85828601612d02565b9150509250929050565b612f5181612ce1565b82525050565b6000602082019050612f6c6000830184612f48565b92915050565b612f7b81612e25565b82525050565b6000602082019050612f966000830184612f72565b92915050565b60008115159050919050565b612fb181612f9c565b8114612fbc57600080fd5b50565b600081359050612fce81612fa8565b92915050565b60008060408385031215612feb57612fea612cd7565b5b6000612ff985828601612d02565b925050602061300a85828601612fbf565b9150509250929050565b600082825260208201905092915050565b7f476f7665726e616e63653a2050726f706f73616c20646f6573206e6f7420657860008201527f6973740000000000000000000000000000000000000000000000000000000000602082015250565b6000613081602383613014565b915061308c82613025565b604082019050919050565b600060208201905081810360008301526130b081613074565b9050919050565b7f476f7665726e616e63653a20566f74696e6720686173206e6f7420656e646564600082015250565b60006130ed602083613014565b91506130f8826130b7565b602082019050919050565b6000602082019050818103600083015261311c816130e0565b9050919050565b7f476f7665726e616e63653a2050726f706f73616c2068617320616c726561647960008201527f206265656e206578656375746564000000000000000000000000000000000000602082015250565b600061317f602e83613014565b915061318a82613123565b604082019050919050565b600060208201905081810360008301526131ae81613172565b9050919050565b7f4e487b7100000000000000000000000000000000000000000000000000000000600052601260045260246000fd5b7f4e487b7100000000000000000000000000000000000000000000000000000000600052601160045260246000fd5b600061321e82612ce1565b915061322983612ce1565b925082613239576132386131b5565b5b828204905092915050565b600061324f82612ce1565b915061325a83612ce1565b9250827fffffffffffffffffffffffffffffffffffffffffffffffffffffffffffffffff0382111561328f5761328e6131e4565b5b828201905092915050565b6132a381612f9c565b82525050565b60006040820190506132be6000830185612f48565b6132cb602083018461329a565b9392505050565b600081519050919050565b600082825260208201905092915050565b60005b8381101561330c5780820151818401526020810190506132f1565b8381111561331b576000848401525b50505050565b6000601f19601f8301169050919050565b600061333d826132d2565b61334781856132dd565b93506133578185602086016132ee565b61336081613321565b840191505092915050565b60006040820190506133806000830185612f48565b81810360208301526133928184613332565b90509392505050565b60006133a682612ce1565b91506133b183612ce1565b9250828210156133c4576133c36131e4565b5b828203905092915050565b7f476f7665726e616e63653a205f70726f706f73616c496420646f6573206e6f7460008201527f2065786973740000000000000000000000000000000000000000000000000000602082015250565b600061342b602683613014565b9150613436826133cf565b604082019050919050565b6000602082019050818103600083015261345a8161341e565b9050919050565b7f476f7665726e616e63653a20566f74696e6720656e6465640000000000000000600082015250565b6000613497601883613014565b91506134a282613461565b602082019050919050565b600060208201905081810360008301526134c68161348a565b9050919050565b7f476f7665726e616e63653a2043616e6e6f7420756e766f746520796f7572206f60008201527f776e2070726f706f73616c000000000000000000000000000000000000000000602082015250565b6000613529602b83613014565b9150613534826134cd565b604082019050919050565b600060208201905081810360008301526135588161351c565b9050919050565b7f476f7665726e616e63653a20446964206e6f7420766f74650000000000000000600082015250565b6000613595601883613014565b91506135a08261355f565b602082019050919050565b600060208201905081810360008301526135c481613588565b9050919050565b60006135d682612da8565b91506135e183612da8565b9250828210156135f4576135f36131e4565b5b828203905092915050565b7f4e487b7100000000000000000000000000000000000000000000000000000000600052603260045260246000fd5b600061363982612ce1565b91507fffffffffffffffffffffffffffffffffffffffffffffffffffffffffffffffff82141561366c5761366b6131e4565b5b600182019050919050565b7f4e487b7100000000000000000000000000000000000000000000000000000000600052603160045260246000fd5b7f50726f706f73656420636f6e747261637420686173206e6f20636f6465000000600082015250565b60006136dc601d83613014565b91506136e7826136a6565b602082019050919050565b6000602082019050818103600083015261370b816136cf565b9050919050565b7f476f7665726e616e63653a20566f74696e67206475726174696f6e206d75737460008201527f206265206c6f6e67657200000000000000000000000000000000000000000000602082015250565b600061376e602a83613014565b915061377982613712565b604082019050919050565b6000602082019050818103600083015261379d81613761565b9050919050565b7f476f7665726e616e63653a20566f74696e672074696d65206d7573742062652060008201527f73686f7274657200000000000000000000000000000000000000000000000000602082015250565b6000613800602783613014565b915061380b826137a4565b604082019050919050565b6000602082019050818103600083015261382f816137f3565b9050919050565b7f476f7665726e616e63653a2042616c616e6365206c657373207468616e20707260008201527f6f706f736572207468726573686f6c6400000000000000000000000000000000602082015250565b6000613892603083613014565b915061389d82613836565b604082019050919050565b600060208201905081810360008301526138c181613885565b9050919050565b600062ffffff82169050919050565b60006138e2826138c8565b915062ffffff8214156138f8576138f76131e4565b5b600182019050919050565b61390c81612d64565b82525050565b60006060820190506139276000830186613903565b6139346020830185613903565b6139416040830184612f48565b949350505050565b7f476f7665726e616e63653a20416c726561647920766f74656400000000000000600082015250565b600061397f601983613014565b915061398a82613949565b602082019050919050565b600060208201905081810360008301526139ae81613972565b9050919050565b60006139c082612da8565b91506139cb83612da8565b9250826bffffffffffffffffffffffff038211156139ec576139eb6131e4565b5b828201905092915050565b600080fd5b7f4e487b7100000000000000000000000000000000000000000000000000000000600052604160045260246000fd5b613a3482613321565b810181811067ffffffffffffffff82111715613a5357613a526139fc565b5b80604052505050565b6000613a66612ccd565b9050613a728282613a2b565b919050565b600067ffffffffffffffff821115613a9257613a916139fc565b5b602082029050602081019050919050565b600080fd5b600080fd5b600080fd5b600081519050613ac181612edc565b92915050565b60038110613ad457600080fd5b50565b600081519050613ae681613ac7565b92915050565b600067ffffffffffffffff821115613b0757613b066139fc565b5b602082029050602081019050919050565b60007fffffffff0000000000000000000000000000000000000000000000000000000082169050919050565b613b4d81613b18565b8114613b5857600080fd5b50565b600081519050613b6a81613b44565b92915050565b6000613b83613b7e84613aec565b613a5c565b90508083825260208201905060208402830185811115613ba657613ba5613aa3565b5b835b81811015613bcf5780613bbb8882613b5b565b845260208401935050602081019050613ba8565b5050509392505050565b600082601f830112613bee57613bed6139f7565b5b8151613bfe848260208601613b70565b91505092915050565b600060608284031215613c1d57613c1c613aa8565b5b613c276060613a5c565b90506000613c3784828501613ab2565b6000830152506020613c4b84828501613ad7565b602083015250604082015167ffffffffffffffff811115613c6f57613c6e613aad565b5b613c7b84828501613bd9565b60408301525092915050565b6000613c9a613c9584613a77565b613a5c565b90508083825260208201905060208402830185811115613cbd57613cbc613aa3565b5b835b81811015613d0457805167ffffffffffffffff811115613ce257613ce16139f7565b5b808601613cef8982613c07565b85526020850194505050602081019050613cbf565b5050509392505050565b600082601f830112613d2357613d226139f7565b5b8151613d33848260208601613c87565b91505092915050565b600080fd5b600067ffffffffffffffff821115613d5c57613d5b6139fc565b5b613d6582613321565b9050602081019050919050565b6000613d85613d8084613d41565b613a5c565b905082815260208101848484011115613da157613da0613d3c565b5b613dac8482856132ee565b509392505050565b600082601f830112613dc957613dc86139f7565b5b8151613dd9848260208601613d72565b91505092915050565b600080600060608486031215613dfb57613dfa612cd7565b5b600084015167ffffffffffffffff811115613e1957613e18612cdc565b5b613e2586828701613d0e565b9350506020613e3686828701613ab2565b925050604084015167ffffffffffffffff811115613e5757613e56612cdc565b5b613e6386828701613db4565b9150509250925092565b6000604082019050613e826000830185613903565b613e8f6020830184613903565b9392505050565b7f4469616d6f6e64426173653a206e6f2073656c6563746f72732073706563696660008201527f6965640000000000000000000000000000000000000000000000000000000000602082015250565b6000613ef2602383613014565b9150613efd82613e96565b604082019050919050565b60006020820190508181036000830152613f2181613ee5565b9050919050565b600081519050919050565b600082825260208201905092915050565b6000819050602082019050919050565b60038110613f6557613f64612dcf565b5b50565b6000819050613f7682613f54565b919050565b6000613f8682613f68565b9050919050565b613f9681613f7b565b82525050565b600081519050919050565b600082825260208201905092915050565b6000819050602082019050919050565b613fd181613b18565b82525050565b6000613fe38383613fc8565b60208301905092915050565b6000602082019050919050565b600061400782613f9c565b6140118185613fa7565b935061401c83613fb8565b8060005b8381101561404d5781516140348882613fd7565b975061403f83613fef565b925050600181019050614020565b5085935050505092915050565b60006060830160008301516140726000860182612d76565b5060208301516140856020860182613f8d565b506040830151848203604086015261409d8282613ffc565b9150508091505092915050565b60006140b6838361405a565b905092915050565b6000602082019050919050565b60006140d682613f28565b6140e08185613f33565b9350836020820285016140f285613f44565b8060005b8581101561412e578484038952815161410f85826140aa565b945061411a836140be565b925060208a019950506001810190506140f6565b50829750879550505050505092915050565b6000606082019050818103600083015261415a81866140cb565b90506141696020830185613903565b818103604083015261417b8184613332565b9050949350505050565b7f4469616d6f6e64426173653a204144442074617267657420686173206e6f206360008201527f6f64650000000000000000000000000000000000000000000000000000000000602082015250565b60006141e1602383613014565b91506141ec82614185565b604082019050919050565b60006020820190508181036000830152614210816141d4565b9050919050565b7f4469616d6f6e64426173653a2073656c6563746f7220616c726561647920616460008201527f6465640000000000000000000000000000000000000000000000000000000000602082015250565b6000614273602383613014565b915061427e82614217565b604082019050919050565b600060208201905081810360008301526142a281614266565b9050919050565b7f4469616d6f6e64426173653a205245504c41434520746172676574206861732060008201527f6e6f20636f646500000000000000000000000000000000000000000000000000602082015250565b6000614305602783613014565b9150614310826142a9565b604082019050919050565b60006020820190508181036000830152614334816142f8565b9050919050565b7f4469616d6f6e64426173653a2073656c6563746f72206e6f7420666f756e6400600082015250565b6000614371601f83613014565b915061437c8261433b565b602082019050919050565b600060208201905081810360008301526143a081614364565b9050919050565b7f4469616d6f6e64426173653a2073656c6563746f7220697320696d6d7574616260008201527f6c65000000000000000000000000000000000000000000000000000000000000602082015250565b6000614403602283613014565b915061440e826143a7565b604082019050919050565b60006020820190508181036000830152614432816143f6565b9050919050565b7f4469616d6f6e64426173653a205245504c41434520746172676574206973206960008201527f64656e746963616c000000000000000000000000000000000000000000000000602082015250565b6000614495602883613014565b91506144a082614439565b604082019050919050565b600060208201905081810360008301526144c481614488565b9050919050565b7f4469616d6f6e64426173653a2052454d4f564520746172676574206d7573742060008201527f6265207a65726f20616464726573730000000000000000000000000000000000602082015250565b6000614527602f83613014565b9150614532826144cb565b604082019050919050565b600060208201905081810360008301526145568161451a565b9050919050565b7f4469616d6f6e64426173653a20696e76616c696420696e697469616c697a617460008201527f696f6e20706172616d6574657273000000000000000000000000000000000000602082015250565b60006145b9602e83613014565b91506145c48261455d565b604082019050919050565b600060208201905081810360008301526145e8816145ac565b9050919050565b7f4469616d6f6e64426173653a20696e697469616c697a6174696f6e207461726760008201527f657420686173206e6f20636f6465000000000000000000000000000000000000602082015250565b600061464b602e83613014565b9150614656826145ef565b604082019050919050565b6000602082019050818103600083015261467a8161463e565b9050919050565b600081905092915050565b6000614697826132d2565b6146a18185614681565b93506146b18185602086016132ee565b80840191505092915050565b60006146c9828461468c565b91508190509291505056fea2646970667358221220936775794e8c44b0819a75bf90d598c33a5064d6fff69f4886c93a4311ac837864736f6c634300080c0033",
  "linkReferences": {},
  "deployedLinkReferences": {}
}