{
  "_format": "hh-sol-artifact-1",
  "contractName": "Git",
  "sourceName": "contracts/logic/Git.sol",
  "abi": [
    {
      "inputs": [
        {
          "components": [
            {
              "internalType": "address",
              "name": "target",
              "type": "address"
            },
            {
              "internalType": "enum IDiamondWritable.FacetCutAction",
              "name": "action",
              "type": "uint8"
            },
            {
              "internalType": "bytes4[]",
              "name": "selectors",
              "type": "bytes4[]"
            }
          ],
          "internalType": "struct IDiamondWritable.FacetCut[]",
          "name": "_cuts",
          "type": "tuple[]"
        }
      ],
      "stateMutability": "nonpayable",
      "type": "constructor"
    },
    {
      "anonymous": false,
      "inputs": [
        {
          "indexed": false,
          "internalType": "address",
          "name": "owner",
          "type": "address"
        },
        {
          "indexed": false,
          "internalType": "string",
          "name": "name",
          "type": "string"
        },
        {
          "indexed": false,
          "internalType": "address",
          "name": "upgrade",
          "type": "address"
        }
      ],
      "name": "Commit",
      "type": "event"
    },
    {
      "inputs": [
        {
          "internalType": "string",
          "name": "name",
          "type": "string"
        },
        {
          "components": [
            {
              "internalType": "address",
              "name": "target",
              "type": "address"
            },
            {
              "internalType": "enum IDiamondWritable.FacetCutAction",
              "name": "action",
              "type": "uint8"
            },
            {
              "internalType": "bytes4[]",
              "name": "selectors",
              "type": "bytes4[]"
            }
          ],
          "internalType": "struct IDiamondWritable.FacetCut[]",
          "name": "cuts",
          "type": "tuple[]"
        },
        {
          "internalType": "address",
          "name": "target",
          "type": "address"
        },
        {
          "internalType": "bytes",
          "name": "data",
          "type": "bytes"
        }
      ],
      "name": "commit",
      "outputs": [
        {
          "internalType": "address",
          "name": "",
          "type": "address"
        }
      ],
      "stateMutability": "nonpayable",
      "type": "function"
    },
    {
      "inputs": [
        {
          "internalType": "address",
          "name": "owner",
          "type": "address"
        },
        {
          "internalType": "string",
          "name": "name",
          "type": "string"
        }
      ],
      "name": "latest",
      "outputs": [
        {
          "internalType": "address",
          "name": "",
          "type": "address"
        }
      ],
      "stateMutability": "view",
      "type": "function"
    },
    {
      "inputs": [],
      "name": "model",
      "outputs": [
        {
          "internalType": "address",
          "name": "",
          "type": "address"
        }
      ],
      "stateMutability": "view",
      "type": "function"
    }
  ],
  "bytecode": "0x60a06040523480156200001157600080fd5b50604051620030a2380380620030a2833981810160405281019062000037919062000527565b6000604051620000479062000117565b604051809103906000f08015801562000064573d6000803e3d6000fd5b5090508073ffffffffffffffffffffffffffffffffffffffff1660808173ffffffffffffffffffffffffffffffffffffffff168152505060805173ffffffffffffffffffffffffffffffffffffffff166314c43a788360006040518363ffffffff1660e01b8152600401620000db92919062000849565b600060405180830381600087803b158015620000f657600080fd5b505af11580156200010b573d6000803e3d6000fd5b50505050505062000892565b6116898062001a1983390190565b6000604051905090565b600080fd5b600080fd5b600080fd5b6000601f19601f8301169050919050565b7f4e487b7100000000000000000000000000000000000000000000000000000000600052604160045260246000fd5b62000189826200013e565b810181811067ffffffffffffffff82111715620001ab57620001aa6200014f565b5b80604052505050565b6000620001c062000125565b9050620001ce82826200017e565b919050565b600067ffffffffffffffff821115620001f157620001f06200014f565b5b602082029050602081019050919050565b600080fd5b600080fd5b600080fd5b600073ffffffffffffffffffffffffffffffffffffffff82169050919050565b60006200023e8262000211565b9050919050565b620002508162000231565b81146200025c57600080fd5b50565b600081519050620002708162000245565b92915050565b600381106200028457600080fd5b50565b600081519050620002988162000276565b92915050565b600067ffffffffffffffff821115620002bc57620002bb6200014f565b5b602082029050602081019050919050565b60007fffffffff0000000000000000000000000000000000000000000000000000000082169050919050565b6200030481620002cd565b81146200031057600080fd5b50565b6000815190506200032481620002f9565b92915050565b6000620003416200033b846200029e565b620001b4565b9050808382526020820190506020840283018581111562000367576200036662000202565b5b835b818110156200039457806200037f888262000313565b84526020840193505060208101905062000369565b5050509392505050565b600082601f830112620003b657620003b562000139565b5b8151620003c88482602086016200032a565b91505092915050565b600060608284031215620003ea57620003e962000207565b5b620003f66060620001b4565b9050600062000408848285016200025f565b60008301525060206200041e8482850162000287565b602083015250604082015167ffffffffffffffff8111156200044557620004446200020c565b5b62000453848285016200039e565b60408301525092915050565b6000620004766200047084620001d3565b620001b4565b905080838252602082019050602084028301858111156200049c576200049b62000202565b5b835b81811015620004ea57805167ffffffffffffffff811115620004c557620004c462000139565b5b808601620004d48982620003d1565b855260208501945050506020810190506200049e565b5050509392505050565b600082601f8301126200050c576200050b62000139565b5b81516200051e8482602086016200045f565b91505092915050565b60006020828403121562000540576200053f6200012f565b5b600082015167ffffffffffffffff81111562000561576200056062000134565b5b6200056f84828501620004f4565b91505092915050565b600081519050919050565b600082825260208201905092915050565b6000819050602082019050919050565b620005af8162000231565b82525050565b7f4e487b7100000000000000000000000000000000000000000000000000000000600052602160045260246000fd5b60038110620005f857620005f7620005b5565b5b50565b60008190506200060b82620005e4565b919050565b60006200061d82620005fb565b9050919050565b6200062f8162000610565b82525050565b600081519050919050565b600082825260208201905092915050565b6000819050602082019050919050565b6200066c81620002cd565b82525050565b600062000680838362000661565b60208301905092915050565b6000602082019050919050565b6000620006a68262000635565b620006b2818562000640565b9350620006bf8362000651565b8060005b83811015620006f6578151620006da888262000672565b9750620006e7836200068c565b925050600181019050620006c3565b5085935050505092915050565b60006060830160008301516200071d6000860182620005a4565b50602083015162000732602086018262000624565b50604083015184820360408601526200074c828262000699565b9150508091505092915050565b600062000767838362000703565b905092915050565b6000602082019050919050565b6000620007898262000578565b62000795818562000583565b935083602082028501620007a98562000594565b8060005b85811015620007eb5784840389528151620007c9858262000759565b9450620007d6836200076f565b925060208a01995050600181019050620007ad565b50829750879550505050505092915050565b620008088162000231565b82525050565b600082825260208201905092915050565b50565b6000620008316000836200080e565b91506200083e826200081f565b600082019050919050565b600060608201905081810360008301526200086581856200077c565b9050620008766020830184620007fd565b8181036040830152620008898162000822565b90509392505050565b608051611165620008b46000396000818160c6015261011601526111656000f3fe608060405234801561001057600080fd5b50600436106100415760003560e01c80630ad9d052146100465780633f82973d14610064578063e245f0f314610094575b600080fd5b61004e6100c4565b60405161005b91906105dd565b60405180910390f35b61007e6004803603810190610079919061077e565b6100e8565b60405161008b91906105dd565b60405180910390f35b6100ae60048036038101906100a991906108e6565b61010e565b6040516100bb91906105dd565b60405180910390f35b7f000000000000000000000000000000000000000000000000000000000000000081565b600061010683836100f7610220565b61024d9092919063ffffffff16565b905092915050565b60008061013a7f000000000000000000000000000000000000000000000000000000000000000061035a565b90508073ffffffffffffffffffffffffffffffffffffffff166314c43a7888888888886040518663ffffffff1660e01b815260040161017d959493929190610d95565b600060405180830381600087803b15801561019757600080fd5b505af11580156101ab573d6000803e3d6000fd5b50505050610211338a8a8080601f016020809104026020016040519081016040528093929190818152602001838380828437600081840152601f19601f8201169050808301925050505050505083610201610220565b610374909392919063ffffffff16565b80915050979650505050505050565b6000807f9bd07fabb3b0444aae2c4f2501fad0d4be45ec9b7a97c92f2a830cc51a83cdbd90508091505090565b6000808460000160008573ffffffffffffffffffffffffffffffffffffffff1673ffffffffffffffffffffffffffffffffffffffff168152602001908152602001600020600001836040516102a29190610e58565b9081526020016040518091039020600001905060008180549050116102fc576040517f08c379a00000000000000000000000000000000000000000000000000000000081526004016102f390610ecc565b60405180910390fd5b60006001828054905061030f9190610f25565b905081818154811061032457610323610f59565b5b9060005260206000200160009054906101000a900473ffffffffffffffffffffffffffffffffffffffff16925050509392505050565b600061036d6103688361047f565b610516565b9050919050565b60008460000160008573ffffffffffffffffffffffffffffffffffffffff1673ffffffffffffffffffffffffffffffffffffffff168152602001908152602001600020600001836040516103c89190610e58565b9081526020016040518091039020600001905080829080600181540180825580915050600190039060005260206000200160009091909190916101000a81548173ffffffffffffffffffffffffffffffffffffffff021916908373ffffffffffffffffffffffffffffffffffffffff1602179055507f9bd9333c54af192665d4fca76542ba1247e233d7c28a77ab4b08f6a895eab68184848460405161047093929190610fc1565b60405180910390a15050505050565b60606040518060400160405280601481526020017f3d602d80600a3d3981f3363d3d373d3d3d363d73000000000000000000000000815250826040518060400160405280600f81526020017f5af43d82803e903d91602b57fd5bf300000000000000000000000000000000008152506040516020016105009392919061108e565b6040516020818303038152906040529050919050565b600081602001825180826000f092505050600073ffffffffffffffffffffffffffffffffffffffff168173ffffffffffffffffffffffffffffffffffffffff161415610597576040517f08c379a000000000000000000000000000000000000000000000000000000000815260040161058e9061110f565b60405180910390fd5b919050565b600073ffffffffffffffffffffffffffffffffffffffff82169050919050565b60006105c78261059c565b9050919050565b6105d7816105bc565b82525050565b60006020820190506105f260008301846105ce565b92915050565b6000604051905090565b600080fd5b600080fd5b610615816105bc565b811461062057600080fd5b50565b6000813590506106328161060c565b92915050565b600080fd5b600080fd5b6000601f19601f8301169050919050565b7f4e487b7100000000000000000000000000000000000000000000000000000000600052604160045260246000fd5b61068b82610642565b810181811067ffffffffffffffff821117156106aa576106a9610653565b5b80604052505050565b60006106bd6105f8565b90506106c98282610682565b919050565b600067ffffffffffffffff8211156106e9576106e8610653565b5b6106f282610642565b9050602081019050919050565b82818337600083830152505050565b600061072161071c846106ce565b6106b3565b90508281526020810184848401111561073d5761073c61063d565b5b6107488482856106ff565b509392505050565b600082601f83011261076557610764610638565b5b813561077584826020860161070e565b91505092915050565b6000806040838503121561079557610794610602565b5b60006107a385828601610623565b925050602083013567ffffffffffffffff8111156107c4576107c3610607565b5b6107d085828601610750565b9150509250929050565b600080fd5b600080fd5b60008083601f8401126107fa576107f9610638565b5b8235905067ffffffffffffffff811115610817576108166107da565b5b602083019150836001820283011115610833576108326107df565b5b9250929050565b60008083601f8401126108505761084f610638565b5b8235905067ffffffffffffffff81111561086d5761086c6107da565b5b602083019150836020820283011115610889576108886107df565b5b9250929050565b60008083601f8401126108a6576108a5610638565b5b8235905067ffffffffffffffff8111156108c3576108c26107da565b5b6020830191508360018202830111156108df576108de6107df565b5b9250929050565b60008060008060008060006080888a03121561090557610904610602565b5b600088013567ffffffffffffffff81111561092357610922610607565b5b61092f8a828b016107e4565b9750975050602088013567ffffffffffffffff81111561095257610951610607565b5b61095e8a828b0161083a565b955095505060406109718a828b01610623565b935050606088013567ffffffffffffffff81111561099257610991610607565b5b61099e8a828b01610890565b925092505092959891949750929550565b600082825260208201905092915050565b6000819050919050565b60006109d96020840184610623565b905092915050565b6109ea816105bc565b82525050565b600381106109fd57600080fd5b50565b600081359050610a0f816109f0565b92915050565b6000610a246020840184610a00565b905092915050565b7f4e487b7100000000000000000000000000000000000000000000000000000000600052602160045260246000fd5b60038110610a6c57610a6b610a2c565b5b50565b6000819050610a7d82610a5b565b919050565b6000610a8d82610a6f565b9050919050565b610a9d81610a82565b82525050565b600080fd5b600080fd5b600080fd5b60008083356001602003843603038112610acf57610ace610aad565b5b83810192508235915060208301925067ffffffffffffffff821115610af757610af6610aa3565b5b602082023603841315610b0d57610b0c610aa8565b5b509250929050565b600082825260208201905092915050565b6000819050919050565b60007fffffffff0000000000000000000000000000000000000000000000000000000082169050919050565b610b6581610b30565b82525050565b6000610b778383610b5c565b60208301905092915050565b610b8c81610b30565b8114610b9757600080fd5b50565b600081359050610ba981610b83565b92915050565b6000610bbe6020840184610b9a565b905092915050565b6000602082019050919050565b6000610bdf8385610b15565b9350610bea82610b26565b8060005b85811015610c2357610c008284610baf565b610c0a8882610b6b565b9750610c1583610bc6565b925050600181019050610bee565b5085925050509392505050565b600060608301610c4360008401846109ca565b610c5060008601826109e1565b50610c5e6020840184610a15565b610c6b6020860182610a94565b50610c796040840184610ab2565b8583036040870152610c8c838284610bd3565b925050508091505092915050565b6000610ca68383610c30565b905092915050565b600082356001606003833603038112610cca57610cc9610aad565b5b82810191505092915050565b6000602082019050919050565b6000610cef83856109af565b935083602084028501610d01846109c0565b8060005b87811015610d45578484038952610d1c8284610cae565b610d268582610c9a565b9450610d3183610cd6565b925060208a01995050600181019050610d05565b50829750879450505050509392505050565b600082825260208201905092915050565b6000610d748385610d57565b9350610d818385846106ff565b610d8a83610642565b840190509392505050565b60006060820190508181036000830152610db0818789610ce3565b9050610dbf60208301866105ce565b8181036040830152610dd2818486610d68565b90509695505050505050565b600081519050919050565b600081905092915050565b60005b83811015610e12578082015181840152602081019050610df7565b83811115610e21576000848401525b50505050565b6000610e3282610dde565b610e3c8185610de9565b9350610e4c818560208601610df4565b80840191505092915050565b6000610e648284610e27565b915081905092915050565b600082825260208201905092915050565b7f4f6e7461703a206e6f20757067726164657320617661696c61626c652e000000600082015250565b6000610eb6601d83610e6f565b9150610ec182610e80565b602082019050919050565b60006020820190508181036000830152610ee581610ea9565b9050919050565b6000819050919050565b7f4e487b7100000000000000000000000000000000000000000000000000000000600052601160045260246000fd5b6000610f3082610eec565b9150610f3b83610eec565b925082821015610f4e57610f4d610ef6565b5b828203905092915050565b7f4e487b7100000000000000000000000000000000000000000000000000000000600052603260045260246000fd5b6000610f9382610dde565b610f9d8185610e6f565b9350610fad818560208601610df4565b610fb681610642565b840191505092915050565b6000606082019050610fd660008301866105ce565b8181036020830152610fe88185610f88565b9050610ff760408301846105ce565b949350505050565b600081519050919050565b600081905092915050565b600061102082610fff565b61102a818561100a565b935061103a818560208601610df4565b80840191505092915050565b60008160601b9050919050565b600061105e82611046565b9050919050565b600061107082611053565b9050919050565b611088611083826105bc565b611065565b82525050565b600061109a8286611015565b91506110a68285611077565b6014820191506110b68284611015565b9150819050949350505050565b7f466163746f72793a206661696c6564206465706c6f796d656e74000000000000600082015250565b60006110f9601a83610e6f565b9150611104826110c3565b602082019050919050565b60006020820190508181036000830152611128816110ec565b905091905056fea264697066735822122012b7fe4ac571b292d161eb660cb1a7af9453027754fbe1b77e7f29a902ae6f5664736f6c634300080c0033608060405234801561001057600080fd5b50611669806100206000396000f3fe608060405234801561001057600080fd5b506004361061007d5760003560e01c80638da5cb5b1161005b5780638da5cb5b146100dc578063b27fb311146100fa578063d4b839921461012b578063f2fde38b146101495761007d565b806314c43a78146100825780636d4ce63c1461009e57806373d4a13a146100be575b600080fd5b61009c60048036038101906100979190610f80565b610165565b005b6100a66103ca565b6040516100b5939291906112f8565b60405180910390f35b6100c6610698565b6040516100d3919061133d565b60405180910390f35b6100e4610726565b6040516100f1919061135f565b60405180910390f35b610114600480360381019061010f91906113b0565b610735565b6040516101229291906113ec565b60405180910390f35b610133610796565b604051610140919061135f565b60405180910390f35b610163600480360381019061015e9190611415565b6107bc565b005b60008054906101000a900460ff16156101b3576040517f08c379a00000000000000000000000000000000000000000000000000000000081526004016101aa9061149f565b60405180910390fd5b6101bb61097f565b60005b8451811015610307578481815181106101da576101d96114bf565b5b6020026020010151915060016040518060600160405280846000015173ffffffffffffffffffffffffffffffffffffffff1681526020018460200151600281111561022857610227611046565b5b81526020018460400151815250908060018154018082558091505060019003906000526020600020906002020160009091909190915060008201518160000160006101000a81548173ffffffffffffffffffffffffffffffffffffffff021916908373ffffffffffffffffffffffffffffffffffffffff16021790555060208201518160000160146101000a81548160ff021916908360028111156102d0576102cf611046565b5b021790555060408201518160010190805190602001906102f19291906109c8565b50505080806102ff9061151d565b9150506101be565b5082600260006101000a81548173ffffffffffffffffffffffffffffffffffffffff021916908373ffffffffffffffffffffffffffffffffffffffff160217905550816003908051906020019061035f929190610a75565b5033610369610861565b60000160006101000a81548173ffffffffffffffffffffffffffffffffffffffff021916908373ffffffffffffffffffffffffffffffffffffffff16021790555060016000806101000a81548160ff02191690831515021790555050505050565b606060006060600060018054905067ffffffffffffffff8111156103f1576103f0610b42565b5b60405190808252806020026020018201604052801561042a57816020015b61041761097f565b81526020019060019003908161040f5790505b50905060005b81518110156105d957604051806060016040528060018381548110610458576104576114bf565b5b906000526020600020906002020160000160009054906101000a900473ffffffffffffffffffffffffffffffffffffffff1673ffffffffffffffffffffffffffffffffffffffff168152602001600183815481106104b9576104b86114bf565b5b906000526020600020906002020160000160149054906101000a900460ff1660028111156104ea576104e9611046565b5b815260200160018381548110610503576105026114bf565b5b90600052602060002090600202016001018054806020026020016040519081016040528092919081815260200182805480156105a057602002820191906000526020600020906000905b82829054906101000a900460e01b7bffffffffffffffffffffffffffffffffffffffffffffffffffffffff19168152602001906004019060208260030104928301926001038202915080841161054d5790505b50505050508152508282815181106105bb576105ba6114bf565b5b602002602001018190525080806105d19061151d565b915050610430565b5080600260009054906101000a900473ffffffffffffffffffffffffffffffffffffffff16600380805461060c90611595565b80601f016020809104026020016040519081016040528092919081815260200182805461063890611595565b80156106855780601f1061065a57610100808354040283529160200191610685565b820191906000526020600020905b81548152906001019060200180831161066857829003601f168201915b5050505050905093509350935050909192565b600380546106a590611595565b80601f01602080910402602001604051908101604052809291908181526020018280546106d190611595565b801561071e5780601f106106f35761010080835404028352916020019161071e565b820191906000526020600020905b81548152906001019060200180831161070157829003601f168201915b505050505081565b600061073061088e565b905090565b6001818154811061074557600080fd5b90600052602060002090600202016000915090508060000160009054906101000a900473ffffffffffffffffffffffffffffffffffffffff16908060000160149054906101000a900460ff16905082565b600260009054906101000a900473ffffffffffffffffffffffffffffffffffffffff1681565b6107c4610861565b60000160009054906101000a900473ffffffffffffffffffffffffffffffffffffffff1673ffffffffffffffffffffffffffffffffffffffff163373ffffffffffffffffffffffffffffffffffffffff1614610855576040517f08c379a000000000000000000000000000000000000000000000000000000000815260040161084c90611613565b60405180910390fd5b61085e816108c1565b50565b6000807f8a22373512790c48b83a1fe2efdd2888d4a917bcdc24d0adf63e60f67168046090508091505090565b6000610898610861565b60000160009054906101000a900473ffffffffffffffffffffffffffffffffffffffff16905090565b6108db816108cd610861565b61093890919063ffffffff16565b8073ffffffffffffffffffffffffffffffffffffffff163373ffffffffffffffffffffffffffffffffffffffff167f8be0079c531659141344cd1fd0a4f28419497f9722a3daafe3b4186f6b6457e060405160405180910390a350565b808260000160006101000a81548173ffffffffffffffffffffffffffffffffffffffff021916908373ffffffffffffffffffffffffffffffffffffffff1602179055505050565b6040518060600160405280600073ffffffffffffffffffffffffffffffffffffffff168152602001600060028111156109bb576109ba611046565b5b8152602001606081525090565b82805482825590600052602060002090600701600890048101928215610a645791602002820160005b83821115610a3257835183826101000a81548163ffffffff021916908360e01c021790555092602001926004016020816003010492830192600103026109f1565b8015610a625782816101000a81549063ffffffff0219169055600401602081600301049283019260010302610a32565b505b509050610a719190610afb565b5090565b828054610a8190611595565b90600052602060002090601f016020900481019282610aa35760008555610aea565b82601f10610abc57805160ff1916838001178555610aea565b82800160010185558215610aea579182015b82811115610ae9578251825591602001919060010190610ace565b5b509050610af79190610afb565b5090565b5b80821115610b14576000816000905550600101610afc565b5090565b6000604051905090565b600080fd5b600080fd5b600080fd5b6000601f19601f8301169050919050565b7f4e487b7100000000000000000000000000000000000000000000000000000000600052604160045260246000fd5b610b7a82610b31565b810181811067ffffffffffffffff82111715610b9957610b98610b42565b5b80604052505050565b6000610bac610b18565b9050610bb88282610b71565b919050565b600067ffffffffffffffff821115610bd857610bd7610b42565b5b602082029050602081019050919050565b600080fd5b600080fd5b600080fd5b600073ffffffffffffffffffffffffffffffffffffffff82169050919050565b6000610c2382610bf8565b9050919050565b610c3381610c18565b8114610c3e57600080fd5b50565b600081359050610c5081610c2a565b92915050565b60038110610c6357600080fd5b50565b600081359050610c7581610c56565b92915050565b600067ffffffffffffffff821115610c9657610c95610b42565b5b602082029050602081019050919050565b60007fffffffff0000000000000000000000000000000000000000000000000000000082169050919050565b610cdc81610ca7565b8114610ce757600080fd5b50565b600081359050610cf981610cd3565b92915050565b6000610d12610d0d84610c7b565b610ba2565b90508083825260208201905060208402830185811115610d3557610d34610be9565b5b835b81811015610d5e5780610d4a8882610cea565b845260208401935050602081019050610d37565b5050509392505050565b600082601f830112610d7d57610d7c610b2c565b5b8135610d8d848260208601610cff565b91505092915050565b600060608284031215610dac57610dab610bee565b5b610db66060610ba2565b90506000610dc684828501610c41565b6000830152506020610dda84828501610c66565b602083015250604082013567ffffffffffffffff811115610dfe57610dfd610bf3565b5b610e0a84828501610d68565b60408301525092915050565b6000610e29610e2484610bbd565b610ba2565b90508083825260208201905060208402830185811115610e4c57610e4b610be9565b5b835b81811015610e9357803567ffffffffffffffff811115610e7157610e70610b2c565b5b808601610e7e8982610d96565b85526020850194505050602081019050610e4e565b5050509392505050565b600082601f830112610eb257610eb1610b2c565b5b8135610ec2848260208601610e16565b91505092915050565b600080fd5b600067ffffffffffffffff821115610eeb57610eea610b42565b5b610ef482610b31565b9050602081019050919050565b82818337600083830152505050565b6000610f23610f1e84610ed0565b610ba2565b905082815260208101848484011115610f3f57610f3e610ecb565b5b610f4a848285610f01565b509392505050565b600082601f830112610f6757610f66610b2c565b5b8135610f77848260208601610f10565b91505092915050565b600080600060608486031215610f9957610f98610b22565b5b600084013567ffffffffffffffff811115610fb757610fb6610b27565b5b610fc386828701610e9d565b9350506020610fd486828701610c41565b925050604084013567ffffffffffffffff811115610ff557610ff4610b27565b5b61100186828701610f52565b9150509250925092565b600081519050919050565b600082825260208201905092915050565b6000819050602082019050919050565b61104081610c18565b82525050565b7f4e487b7100000000000000000000000000000000000000000000000000000000600052602160045260246000fd5b6003811061108657611085611046565b5b50565b600081905061109782611075565b919050565b60006110a782611089565b9050919050565b6110b78161109c565b82525050565b600081519050919050565b600082825260208201905092915050565b6000819050602082019050919050565b6110f281610ca7565b82525050565b600061110483836110e9565b60208301905092915050565b6000602082019050919050565b6000611128826110bd565b61113281856110c8565b935061113d836110d9565b8060005b8381101561116e57815161115588826110f8565b975061116083611110565b925050600181019050611141565b5085935050505092915050565b60006060830160008301516111936000860182611037565b5060208301516111a660208601826110ae565b50604083015184820360408601526111be828261111d565b9150508091505092915050565b60006111d7838361117b565b905092915050565b6000602082019050919050565b60006111f78261100b565b6112018185611016565b93508360208202850161121385611027565b8060005b8581101561124f578484038952815161123085826111cb565b945061123b836111df565b925060208a01995050600181019050611217565b50829750879550505050505092915050565b61126a81610c18565b82525050565b600081519050919050565b600082825260208201905092915050565b60005b838110156112aa57808201518184015260208101905061128f565b838111156112b9576000848401525b50505050565b60006112ca82611270565b6112d4818561127b565b93506112e481856020860161128c565b6112ed81610b31565b840191505092915050565b6000606082019050818103600083015261131281866111ec565b90506113216020830185611261565b818103604083015261133381846112bf565b9050949350505050565b6000602082019050818103600083015261135781846112bf565b905092915050565b60006020820190506113746000830184611261565b92915050565b6000819050919050565b61138d8161137a565b811461139857600080fd5b50565b6000813590506113aa81611384565b92915050565b6000602082840312156113c6576113c5610b22565b5b60006113d48482850161139b565b91505092915050565b6113e68161109c565b82525050565b60006040820190506114016000830185611261565b61140e60208301846113dd565b9392505050565b60006020828403121561142b5761142a610b22565b5b600061143984828501610c41565b91505092915050565b600082825260208201905092915050565b7f557067726164653a20616c726561647920726567697374657265642e00000000600082015250565b6000611489601c83611442565b915061149482611453565b602082019050919050565b600060208201905081810360008301526114b88161147c565b9050919050565b7f4e487b7100000000000000000000000000000000000000000000000000000000600052603260045260246000fd5b7f4e487b7100000000000000000000000000000000000000000000000000000000600052601160045260246000fd5b60006115288261137a565b91507fffffffffffffffffffffffffffffffffffffffffffffffffffffffffffffffff82141561155b5761155a6114ee565b5b600182019050919050565b7f4e487b7100000000000000000000000000000000000000000000000000000000600052602260045260246000fd5b600060028204905060018216806115ad57607f821691505b602082108114156115c1576115c0611566565b5b50919050565b7f4f776e61626c653a2073656e646572206d757374206265206f776e6572000000600082015250565b60006115fd601d83611442565b9150611608826115c7565b602082019050919050565b6000602082019050818103600083015261162c816115f0565b905091905056fea2646970667358221220a4e0bdca32b54208173983fdce0ab332e10c94f13f2cc62c7cc81af4aa885b0664736f6c634300080c0033",
  "linkReferences": {},
  "deployedLinkReferences": {}
}